{"contracts/CarRental.sol":{"CarRental":{"abi":[{"inputs":[{"internalType":"address","name":"_authorizedBackend","type":"address"}],"stateMutability":"nonpayable","type":"constructor"},{"anonymous":false,"inputs":[{"indexed":true,"internalType":"address","name":"backend","type":"address"}],"name":"BackendAuthorized","type":"event"},{"anonymous":false,"inputs":[{"indexed":true,"internalType":"address","name":"renter","type":"address"},{"indexed":false,"internalType":"string","name":"carType","type":"string"},{"indexed":false,"internalType":"uint256","name":"pickUpDate","type":"uint256"},{"indexed":false,"internalType":"uint256","name":"dropOffDate","type":"uint256"}],"name":"CarBooked","type":"event"},{"anonymous":false,"inputs":[{"indexed":true,"internalType":"uint256","name":"reservationId","type":"uint256"}],"name":"ReservationCanceled","type":"event"},{"anonymous":false,"inputs":[{"indexed":true,"internalType":"uint256","name":"reservationId","type":"uint256"}],"name":"ReservationConfirmed","type":"event"},{"inputs":[],"name":"authorizedBackend","outputs":[{"internalType":"address","name":"","type":"address"}],"stateMutability":"view","type":"function"},{"inputs":[{"internalType":"address","name":"_renter","type":"address"},{"internalType":"string","name":"_carType","type":"string"},{"internalType":"uint256","name":"_pickUpDate","type":"uint256"},{"internalType":"uint256","name":"_dropOffDate","type":"uint256"}],"name":"bookCar","outputs":[],"stateMutability":"nonpayable","type":"function"},{"inputs":[{"internalType":"uint256","name":"_reservationId","type":"uint256"}],"name":"cancelReservation","outputs":[],"stateMutability":"nonpayable","type":"function"},{"inputs":[{"internalType":"uint256","name":"_reservationId","type":"uint256"}],"name":"confirmReservation","outputs":[],"stateMutability":"nonpayable","type":"function"},{"inputs":[{"internalType":"uint256","name":"_reservationId","type":"uint256"}],"name":"getReservation","outputs":[{"internalType":"address","name":"renter","type":"address"},{"internalType":"string","name":"carType","type":"string"},{"internalType":"uint256","name":"pickUpDate","type":"uint256"},{"internalType":"uint256","name":"dropOffDate","type":"uint256"},{"internalType":"bool","name":"confirmed","type":"bool"}],"stateMutability":"view","type":"function"},{"inputs":[],"name":"owner","outputs":[{"internalType":"address","name":"","type":"address"}],"stateMutability":"view","type":"function"},{"inputs":[],"name":"reservationCount","outputs":[{"internalType":"uint256","name":"","type":"uint256"}],"stateMutability":"view","type":"function"},{"inputs":[{"internalType":"uint256","name":"","type":"uint256"}],"name":"reservations","outputs":[{"internalType":"address","name":"renter","type":"address"},{"internalType":"string","name":"carType","type":"string"},{"internalType":"uint256","name":"pickUpDate","type":"uint256"},{"internalType":"uint256","name":"dropOffDate","type":"uint256"},{"internalType":"bool","name":"confirmed","type":"bool"}],"stateMutability":"view","type":"function"},{"inputs":[{"internalType":"address","name":"_backend","type":"address"}],"name":"setAuthorizedBackend","outputs":[],"stateMutability":"nonpayable","type":"function"}],"evm":{"bytecode":{"linkReferences":{},"object":"60806040523480156200001157600080fd5b50604051620013c2380380620013c2833981810160405281019062000037919062000174565b336000806101000a81548173ffffffffffffffffffffffffffffffffffffffff021916908373ffffffffffffffffffffffffffffffffffffffff16021790555080600160006101000a81548173ffffffffffffffffffffffffffffffffffffffff021916908373ffffffffffffffffffffffffffffffffffffffff16021790555060006003819055508073ffffffffffffffffffffffffffffffffffffffff167fcaac1cded5f66c118ba915f0fc60cd20a0924fcf956320b5230e70c8d5a773ca60405160405180910390a250620001a6565b600080fd5b600073ffffffffffffffffffffffffffffffffffffffff82169050919050565b60006200013c826200010f565b9050919050565b6200014e816200012f565b81146200015a57600080fd5b50565b6000815190506200016e8162000143565b92915050565b6000602082840312156200018d576200018c6200010a565b5b60006200019d848285016200015d565b91505092915050565b61120c80620001b66000396000f3fe608060405234801561001057600080fd5b50600436106100935760003560e01c8063afcba24711610066578063afcba24714610124578063d57763c314610140578063da61a8af14610174578063e84f756e14610190578063ecc2ecdd146101ae57610093565b8063067cf8321461009857806349430bcf146100cc5780638da5cb5b146100ea578063ae5e6cf414610108575b600080fd5b6100b260048036038101906100ad9190610b7a565b6101ca565b6040516100c3959493929190610cab565b60405180910390f35b6100d46102c5565b6040516100e19190610d05565b60405180910390f35b6100f26102eb565b6040516100ff9190610d05565b60405180910390f35b610122600480360381019061011d9190610b7a565b61030f565b005b61013e60048036038101906101399190610d4c565b610493565b005b61015a60048036038101906101559190610b7a565b6105a8565b60405161016b959493929190610cab565b60405180910390f35b61018e60048036038101906101899190610eae565b610700565b005b610198610905565b6040516101a59190610f31565b60405180910390f35b6101c860048036038101906101c39190610b7a565b61090b565b005b600281815481106101da57600080fd5b90600052602060002090600502016000915090508060000160009054906101000a900473ffffffffffffffffffffffffffffffffffffffff169080600101805461022390610f7b565b80601f016020809104026020016040519081016040528092919081815260200182805461024f90610f7b565b801561029c5780601f106102715761010080835404028352916020019161029c565b820191906000526020600020905b81548152906001019060200180831161027f57829003601f168201915b5050505050908060020154908060030154908060040160009054906101000a900460ff16905085565b600160009054906101000a900473ffffffffffffffffffffffffffffffffffffffff1681565b60008054906101000a900473ffffffffffffffffffffffffffffffffffffffff1681565b600160009054906101000a900473ffffffffffffffffffffffffffffffffffffffff1673ffffffffffffffffffffffffffffffffffffffff163373ffffffffffffffffffffffffffffffffffffffff161461039f576040517f08c379a000000000000000000000000000000000000000000000000000000000815260040161039690610ff9565b60405180910390fd5b60035481106103e3576040517f08c379a00000000000000000000000000000000000000000000000000000000081526004016103da90611065565b60405180910390fd5b600281815481106103f7576103f6611085565b5b9060005260206000209060050201600080820160006101000a81549073ffffffffffffffffffffffffffffffffffffffff021916905560018201600061043d9190610a4d565b600282016000905560038201600090556004820160006101000a81549060ff02191690555050807f81a9339e192f17a2544892f6f54b4b2c4d16184d3ac5cbcd45146fe360d753af60405160405180910390a250565b60008054906101000a900473ffffffffffffffffffffffffffffffffffffffff1673ffffffffffffffffffffffffffffffffffffffff163373ffffffffffffffffffffffffffffffffffffffff1614610521576040517f08c379a000000000000000000000000000000000000000000000000000000000815260040161051890611100565b60405180910390fd5b80600160006101000a81548173ffffffffffffffffffffffffffffffffffffffff021916908373ffffffffffffffffffffffffffffffffffffffff1602179055508073ffffffffffffffffffffffffffffffffffffffff167fcaac1cded5f66c118ba915f0fc60cd20a0924fcf956320b5230e70c8d5a773ca60405160405180910390a250565b60006060600080600060035486106105f5576040517f08c379a00000000000000000000000000000000000000000000000000000000081526004016105ec90611065565b60405180910390fd5b60006002878154811061060b5761060a611085565b5b906000526020600020906005020190508060000160009054906101000a900473ffffffffffffffffffffffffffffffffffffffff1681600101826002015483600301548460040160009054906101000a900460ff1683805461066c90610f7b565b80601f016020809104026020016040519081016040528092919081815260200182805461069890610f7b565b80156106e55780601f106106ba576101008083540402835291602001916106e5565b820191906000526020600020905b8154815290600101906020018083116106c857829003601f168201915b50505050509350955095509550955095505091939590929450565b600160009054906101000a900473ffffffffffffffffffffffffffffffffffffffff1673ffffffffffffffffffffffffffffffffffffffff163373ffffffffffffffffffffffffffffffffffffffff1614610790576040517f08c379a000000000000000000000000000000000000000000000000000000000815260040161078790610ff9565b60405180910390fd5b60026040518060a001604052808673ffffffffffffffffffffffffffffffffffffffff16815260200185815260200184815260200183815260200160001515815250908060018154018082558091505060019003906000526020600020906005020160009091909190915060008201518160000160006101000a81548173ffffffffffffffffffffffffffffffffffffffff021916908373ffffffffffffffffffffffffffffffffffffffff160217905550602082015181600101908051906020019061085e929190610a8d565b50604082015181600201556060820151816003015560808201518160040160006101000a81548160ff0219169083151502179055505050600360008154809291906108a89061114f565b91905055508373ffffffffffffffffffffffffffffffffffffffff167ffdc73d0cb89f717ce84a38ef3d0396e5eb5a8c3af40f3d0fc648b8571601f7f38484846040516108f793929190611198565b60405180910390a250505050565b60035481565b600160009054906101000a900473ffffffffffffffffffffffffffffffffffffffff1673ffffffffffffffffffffffffffffffffffffffff163373ffffffffffffffffffffffffffffffffffffffff161461099b576040517f08c379a000000000000000000000000000000000000000000000000000000000815260040161099290610ff9565b60405180910390fd5b60035481106109df576040517f08c379a00000000000000000000000000000000000000000000000000000000081526004016109d690611065565b60405180910390fd5b6001600282815481106109f5576109f4611085565b5b906000526020600020906005020160040160006101000a81548160ff021916908315150217905550807fec59d58c5415ce6be7c425872bec7e9c1482eaf1fb023220ed20b45b5d1c0de060405160405180910390a250565b508054610a5990610f7b565b6000825580601f10610a6b5750610a8a565b601f016020900490600052602060002090810190610a899190610b13565b5b50565b828054610a9990610f7b565b90600052602060002090601f016020900481019282610abb5760008555610b02565b82601f10610ad457805160ff1916838001178555610b02565b82800160010185558215610b02579182015b82811115610b01578251825591602001919060010190610ae6565b5b509050610b0f9190610b13565b5090565b5b80821115610b2c576000816000905550600101610b14565b5090565b6000604051905090565b600080fd5b600080fd5b6000819050919050565b610b5781610b44565b8114610b6257600080fd5b50565b600081359050610b7481610b4e565b92915050565b600060208284031215610b9057610b8f610b3a565b5b6000610b9e84828501610b65565b91505092915050565b600073ffffffffffffffffffffffffffffffffffffffff82169050919050565b6000610bd282610ba7565b9050919050565b610be281610bc7565b82525050565b600081519050919050565b600082825260208201905092915050565b60005b83811015610c22578082015181840152602081019050610c07565b83811115610c31576000848401525b50505050565b6000601f19601f8301169050919050565b6000610c5382610be8565b610c5d8185610bf3565b9350610c6d818560208601610c04565b610c7681610c37565b840191505092915050565b610c8a81610b44565b82525050565b60008115159050919050565b610ca581610c90565b82525050565b600060a082019050610cc06000830188610bd9565b8181036020830152610cd28187610c48565b9050610ce16040830186610c81565b610cee6060830185610c81565b610cfb6080830184610c9c565b9695505050505050565b6000602082019050610d1a6000830184610bd9565b92915050565b610d2981610bc7565b8114610d3457600080fd5b50565b600081359050610d4681610d20565b92915050565b600060208284031215610d6257610d61610b3a565b5b6000610d7084828501610d37565b91505092915050565b600080fd5b600080fd5b7f4e487b7100000000000000000000000000000000000000000000000000000000600052604160045260246000fd5b610dbb82610c37565b810181811067ffffffffffffffff82111715610dda57610dd9610d83565b5b80604052505050565b6000610ded610b30565b9050610df98282610db2565b919050565b600067ffffffffffffffff821115610e1957610e18610d83565b5b610e2282610c37565b9050602081019050919050565b82818337600083830152505050565b6000610e51610e4c84610dfe565b610de3565b905082815260208101848484011115610e6d57610e6c610d7e565b5b610e78848285610e2f565b509392505050565b600082601f830112610e9557610e94610d79565b5b8135610ea5848260208601610e3e565b91505092915050565b60008060008060808587031215610ec857610ec7610b3a565b5b6000610ed687828801610d37565b945050602085013567ffffffffffffffff811115610ef757610ef6610b3f565b5b610f0387828801610e80565b9350506040610f1487828801610b65565b9250506060610f2587828801610b65565b91505092959194509250565b6000602082019050610f466000830184610c81565b92915050565b7f4e487b7100000000000000000000000000000000000000000000000000000000600052602260045260246000fd5b60006002820490506001821680610f9357607f821691505b60208210811415610fa757610fa6610f4c565b5b50919050565b7f4e6f7420617574686f72697a65643a206261636b656e64206f6e6c7900000000600082015250565b6000610fe3601c83610bf3565b9150610fee82610fad565b602082019050919050565b6000602082019050818103600083015261101281610fd6565b9050919050565b7f496e76616c6964207265736572766174696f6e20494400000000000000000000600082015250565b600061104f601683610bf3565b915061105a82611019565b602082019050919050565b6000602082019050818103600083015261107e81611042565b9050919050565b7f4e487b7100000000000000000000000000000000000000000000000000000000600052603260045260246000fd5b7f4e6f74206f776e65720000000000000000000000000000000000000000000000600082015250565b60006110ea600983610bf3565b91506110f5826110b4565b602082019050919050565b60006020820190508181036000830152611119816110dd565b9050919050565b7f4e487b7100000000000000000000000000000000000000000000000000000000600052601160045260246000fd5b600061115a82610b44565b91507fffffffffffffffffffffffffffffffffffffffffffffffffffffffffffffffff82141561118d5761118c611120565b5b600182019050919050565b600060608201905081810360008301526111b28186610c48565b90506111c16020830185610c81565b6111ce6040830184610c81565b94935050505056fea2646970667358221220e71269b6b9d6134e8ce1b2714161ad20f336dab12f9c9dac5384b075d7d0e19864736f6c63430008090033","opcodes":"PUSH1 0x80 PUSH1 0x40 MSTORE CALLVALUE DUP1 ISZERO PUSH3 0x11 JUMPI PUSH1 0x0 DUP1 REVERT JUMPDEST POP PUSH1 0x40 MLOAD PUSH3 0x13C2 CODESIZE SUB DUP1 PUSH3 0x13C2 DUP4 CODECOPY DUP2 DUP2 ADD PUSH1 0x40 MSTORE DUP2 ADD SWAP1 PUSH3 0x37 SWAP2 SWAP1 PUSH3 0x174 JUMP JUMPDEST CALLER PUSH1 0x0 DUP1 PUSH2 0x100 EXP DUP2 SLOAD DUP2 PUSH20 0xFFFFFFFFFFFFFFFFFFFFFFFFFFFFFFFFFFFFFFFF MUL NOT AND SWAP1 DUP4 PUSH20 0xFFFFFFFFFFFFFFFFFFFFFFFFFFFFFFFFFFFFFFFF AND MUL OR SWAP1 SSTORE POP DUP1 PUSH1 0x1 PUSH1 0x0 PUSH2 0x100 EXP DUP2 SLOAD DUP2 PUSH20 0xFFFFFFFFFFFFFFFFFFFFFFFFFFFFFFFFFFFFFFFF MUL NOT AND SWAP1 DUP4 PUSH20 0xFFFFFFFFFFFFFFFFFFFFFFFFFFFFFFFFFFFFFFFF AND MUL OR SWAP1 SSTORE POP PUSH1 0x0 PUSH1 0x3 DUP2 SWAP1 SSTORE POP DUP1 PUSH20 0xFFFFFFFFFFFFFFFFFFFFFFFFFFFFFFFFFFFFFFFF AND PUSH32 0xCAAC1CDED5F66C118BA915F0FC60CD20A0924FCF956320B5230E70C8D5A773CA PUSH1 0x40 MLOAD PUSH1 0x40 MLOAD DUP1 SWAP2 SUB SWAP1 LOG2 POP PUSH3 0x1A6 JUMP JUMPDEST PUSH1 0x0 DUP1 REVERT JUMPDEST PUSH1 0x0 PUSH20 0xFFFFFFFFFFFFFFFFFFFFFFFFFFFFFFFFFFFFFFFF DUP3 AND SWAP1 POP SWAP2 SWAP1 POP JUMP JUMPDEST PUSH1 0x0 PUSH3 0x13C DUP3 PUSH3 0x10F JUMP JUMPDEST SWAP1 POP SWAP2 SWAP1 POP JUMP JUMPDEST PUSH3 0x14E DUP2 PUSH3 0x12F JUMP JUMPDEST DUP2 EQ PUSH3 0x15A JUMPI PUSH1 0x0 DUP1 REVERT JUMPDEST POP JUMP JUMPDEST PUSH1 0x0 DUP2 MLOAD SWAP1 POP PUSH3 0x16E DUP2 PUSH3 0x143 JUMP JUMPDEST SWAP3 SWAP2 POP POP JUMP JUMPDEST PUSH1 0x0 PUSH1 0x20 DUP3 DUP5 SUB SLT ISZERO PUSH3 0x18D JUMPI PUSH3 0x18C PUSH3 0x10A JUMP JUMPDEST JUMPDEST PUSH1 0x0 PUSH3 0x19D DUP5 DUP3 DUP6 ADD PUSH3 0x15D JUMP JUMPDEST SWAP2 POP POP SWAP3 SWAP2 POP POP JUMP JUMPDEST PUSH2 0x120C DUP1 PUSH3 0x1B6 PUSH1 0x0 CODECOPY PUSH1 0x0 RETURN INVALID PUSH1 0x80 PUSH1 0x40 MSTORE CALLVALUE DUP1 ISZERO PUSH2 0x10 JUMPI PUSH1 0x0 DUP1 REVERT JUMPDEST POP PUSH1 0x4 CALLDATASIZE LT PUSH2 0x93 JUMPI PUSH1 0x0 CALLDATALOAD PUSH1 0xE0 SHR DUP1 PUSH4 0xAFCBA247 GT PUSH2 0x66 JUMPI DUP1 PUSH4 0xAFCBA247 EQ PUSH2 0x124 JUMPI DUP1 PUSH4 0xD57763C3 EQ PUSH2 0x140 JUMPI DUP1 PUSH4 0xDA61A8AF EQ PUSH2 0x174 JUMPI DUP1 PUSH4 0xE84F756E EQ PUSH2 0x190 JUMPI DUP1 PUSH4 0xECC2ECDD EQ PUSH2 0x1AE JUMPI PUSH2 0x93 JUMP JUMPDEST DUP1 PUSH4 0x67CF832 EQ PUSH2 0x98 JUMPI DUP1 PUSH4 0x49430BCF EQ PUSH2 0xCC JUMPI DUP1 PUSH4 0x8DA5CB5B EQ PUSH2 0xEA JUMPI DUP1 PUSH4 0xAE5E6CF4 EQ PUSH2 0x108 JUMPI JUMPDEST PUSH1 0x0 DUP1 REVERT JUMPDEST PUSH2 0xB2 PUSH1 0x4 DUP1 CALLDATASIZE SUB DUP2 ADD SWAP1 PUSH2 0xAD SWAP2 SWAP1 PUSH2 0xB7A JUMP JUMPDEST PUSH2 0x1CA JUMP JUMPDEST PUSH1 0x40 MLOAD PUSH2 0xC3 SWAP6 SWAP5 SWAP4 SWAP3 SWAP2 SWAP1 PUSH2 0xCAB JUMP JUMPDEST PUSH1 0x40 MLOAD DUP1 SWAP2 SUB SWAP1 RETURN JUMPDEST PUSH2 0xD4 PUSH2 0x2C5 JUMP JUMPDEST PUSH1 0x40 MLOAD PUSH2 0xE1 SWAP2 SWAP1 PUSH2 0xD05 JUMP JUMPDEST PUSH1 0x40 MLOAD DUP1 SWAP2 SUB SWAP1 RETURN JUMPDEST PUSH2 0xF2 PUSH2 0x2EB JUMP JUMPDEST PUSH1 0x40 MLOAD PUSH2 0xFF SWAP2 SWAP1 PUSH2 0xD05 JUMP JUMPDEST PUSH1 0x40 MLOAD DUP1 SWAP2 SUB SWAP1 RETURN JUMPDEST PUSH2 0x122 PUSH1 0x4 DUP1 CALLDATASIZE SUB DUP2 ADD SWAP1 PUSH2 0x11D SWAP2 SWAP1 PUSH2 0xB7A JUMP JUMPDEST PUSH2 0x30F JUMP JUMPDEST STOP JUMPDEST PUSH2 0x13E PUSH1 0x4 DUP1 CALLDATASIZE SUB DUP2 ADD SWAP1 PUSH2 0x139 SWAP2 SWAP1 PUSH2 0xD4C JUMP JUMPDEST PUSH2 0x493 JUMP JUMPDEST STOP JUMPDEST PUSH2 0x15A PUSH1 0x4 DUP1 CALLDATASIZE SUB DUP2 ADD SWAP1 PUSH2 0x155 SWAP2 SWAP1 PUSH2 0xB7A JUMP JUMPDEST PUSH2 0x5A8 JUMP JUMPDEST PUSH1 0x40 MLOAD PUSH2 0x16B SWAP6 SWAP5 SWAP4 SWAP3 SWAP2 SWAP1 PUSH2 0xCAB JUMP JUMPDEST PUSH1 0x40 MLOAD DUP1 SWAP2 SUB SWAP1 RETURN JUMPDEST PUSH2 0x18E PUSH1 0x4 DUP1 CALLDATASIZE SUB DUP2 ADD SWAP1 PUSH2 0x189 SWAP2 SWAP1 PUSH2 0xEAE JUMP JUMPDEST PUSH2 0x700 JUMP JUMPDEST STOP JUMPDEST PUSH2 0x198 PUSH2 0x905 JUMP JUMPDEST PUSH1 0x40 MLOAD PUSH2 0x1A5 SWAP2 SWAP1 PUSH2 0xF31 JUMP JUMPDEST PUSH1 0x40 MLOAD DUP1 SWAP2 SUB SWAP1 RETURN JUMPDEST PUSH2 0x1C8 PUSH1 0x4 DUP1 CALLDATASIZE SUB DUP2 ADD SWAP1 PUSH2 0x1C3 SWAP2 SWAP1 PUSH2 0xB7A JUMP JUMPDEST PUSH2 0x90B JUMP JUMPDEST STOP JUMPDEST PUSH1 0x2 DUP2 DUP2 SLOAD DUP2 LT PUSH2 0x1DA JUMPI PUSH1 0x0 DUP1 REVERT JUMPDEST SWAP1 PUSH1 0x0 MSTORE PUSH1 0x20 PUSH1 0x0 KECCAK256 SWAP1 PUSH1 0x5 MUL ADD PUSH1 0x0 SWAP2 POP SWAP1 POP DUP1 PUSH1 0x0 ADD PUSH1 0x0 SWAP1 SLOAD SWAP1 PUSH2 0x100 EXP SWAP1 DIV PUSH20 0xFFFFFFFFFFFFFFFFFFFFFFFFFFFFFFFFFFFFFFFF AND SWAP1 DUP1 PUSH1 0x1 ADD DUP1 SLOAD PUSH2 0x223 SWAP1 PUSH2 0xF7B JUMP JUMPDEST DUP1 PUSH1 0x1F ADD PUSH1 0x20 DUP1 SWAP2 DIV MUL PUSH1 0x20 ADD PUSH1 0x40 MLOAD SWAP1 DUP2 ADD PUSH1 0x40 MSTORE DUP1 SWAP3 SWAP2 SWAP1 DUP2 DUP2 MSTORE PUSH1 0x20 ADD DUP3 DUP1 SLOAD PUSH2 0x24F SWAP1 PUSH2 0xF7B JUMP JUMPDEST DUP1 ISZERO PUSH2 0x29C JUMPI DUP1 PUSH1 0x1F LT PUSH2 0x271 JUMPI PUSH2 0x100 DUP1 DUP4 SLOAD DIV MUL DUP4 MSTORE SWAP2 PUSH1 0x20 ADD SWAP2 PUSH2 0x29C JUMP JUMPDEST DUP3 ADD SWAP2 SWAP1 PUSH1 0x0 MSTORE PUSH1 0x20 PUSH1 0x0 KECCAK256 SWAP1 JUMPDEST DUP2 SLOAD DUP2 MSTORE SWAP1 PUSH1 0x1 ADD SWAP1 PUSH1 0x20 ADD DUP1 DUP4 GT PUSH2 0x27F JUMPI DUP3 SWAP1 SUB PUSH1 0x1F AND DUP3 ADD SWAP2 JUMPDEST POP POP POP POP POP SWAP1 DUP1 PUSH1 0x2 ADD SLOAD SWAP1 DUP1 PUSH1 0x3 ADD SLOAD SWAP1 DUP1 PUSH1 0x4 ADD PUSH1 0x0 SWAP1 SLOAD SWAP1 PUSH2 0x100 EXP SWAP1 DIV PUSH1 0xFF AND SWAP1 POP DUP6 JUMP JUMPDEST PUSH1 0x1 PUSH1 0x0 SWAP1 SLOAD SWAP1 PUSH2 0x100 EXP SWAP1 DIV PUSH20 0xFFFFFFFFFFFFFFFFFFFFFFFFFFFFFFFFFFFFFFFF AND DUP2 JUMP JUMPDEST PUSH1 0x0 DUP1 SLOAD SWAP1 PUSH2 0x100 EXP SWAP1 DIV PUSH20 0xFFFFFFFFFFFFFFFFFFFFFFFFFFFFFFFFFFFFFFFF AND DUP2 JUMP JUMPDEST PUSH1 0x1 PUSH1 0x0 SWAP1 SLOAD SWAP1 PUSH2 0x100 EXP SWAP1 DIV PUSH20 0xFFFFFFFFFFFFFFFFFFFFFFFFFFFFFFFFFFFFFFFF AND PUSH20 0xFFFFFFFFFFFFFFFFFFFFFFFFFFFFFFFFFFFFFFFF AND CALLER PUSH20 0xFFFFFFFFFFFFFFFFFFFFFFFFFFFFFFFFFFFFFFFF AND EQ PUSH2 0x39F JUMPI PUSH1 0x40 MLOAD PUSH32 0x8C379A000000000000000000000000000000000000000000000000000000000 DUP2 MSTORE PUSH1 0x4 ADD PUSH2 0x396 SWAP1 PUSH2 0xFF9 JUMP JUMPDEST PUSH1 0x40 MLOAD DUP1 SWAP2 SUB SWAP1 REVERT JUMPDEST PUSH1 0x3 SLOAD DUP2 LT PUSH2 0x3E3 JUMPI PUSH1 0x40 MLOAD PUSH32 0x8C379A000000000000000000000000000000000000000000000000000000000 DUP2 MSTORE PUSH1 0x4 ADD PUSH2 0x3DA SWAP1 PUSH2 0x1065 JUMP JUMPDEST PUSH1 0x40 MLOAD DUP1 SWAP2 SUB SWAP1 REVERT JUMPDEST PUSH1 0x2 DUP2 DUP2 SLOAD DUP2 LT PUSH2 0x3F7 JUMPI PUSH2 0x3F6 PUSH2 0x1085 JUMP JUMPDEST JUMPDEST SWAP1 PUSH1 0x0 MSTORE PUSH1 0x20 PUSH1 0x0 KECCAK256 SWAP1 PUSH1 0x5 MUL ADD PUSH1 0x0 DUP1 DUP3 ADD PUSH1 0x0 PUSH2 0x100 EXP DUP2 SLOAD SWAP1 PUSH20 0xFFFFFFFFFFFFFFFFFFFFFFFFFFFFFFFFFFFFFFFF MUL NOT AND SWAP1 SSTORE PUSH1 0x1 DUP3 ADD PUSH1 0x0 PUSH2 0x43D SWAP2 SWAP1 PUSH2 0xA4D JUMP JUMPDEST PUSH1 0x2 DUP3 ADD PUSH1 0x0 SWAP1 SSTORE PUSH1 0x3 DUP3 ADD PUSH1 0x0 SWAP1 SSTORE PUSH1 0x4 DUP3 ADD PUSH1 0x0 PUSH2 0x100 EXP DUP2 SLOAD SWAP1 PUSH1 0xFF MUL NOT AND SWAP1 SSTORE POP POP DUP1 PUSH32 0x81A9339E192F17A2544892F6F54B4B2C4D16184D3AC5CBCD45146FE360D753AF PUSH1 0x40 MLOAD PUSH1 0x40 MLOAD DUP1 SWAP2 SUB SWAP1 LOG2 POP JUMP JUMPDEST PUSH1 0x0 DUP1 SLOAD SWAP1 PUSH2 0x100 EXP SWAP1 DIV PUSH20 0xFFFFFFFFFFFFFFFFFFFFFFFFFFFFFFFFFFFFFFFF AND PUSH20 0xFFFFFFFFFFFFFFFFFFFFFFFFFFFFFFFFFFFFFFFF AND CALLER PUSH20 0xFFFFFFFFFFFFFFFFFFFFFFFFFFFFFFFFFFFFFFFF AND EQ PUSH2 0x521 JUMPI PUSH1 0x40 MLOAD PUSH32 0x8C379A000000000000000000000000000000000000000000000000000000000 DUP2 MSTORE PUSH1 0x4 ADD PUSH2 0x518 SWAP1 PUSH2 0x1100 JUMP JUMPDEST PUSH1 0x40 MLOAD DUP1 SWAP2 SUB SWAP1 REVERT JUMPDEST DUP1 PUSH1 0x1 PUSH1 0x0 PUSH2 0x100 EXP DUP2 SLOAD DUP2 PUSH20 0xFFFFFFFFFFFFFFFFFFFFFFFFFFFFFFFFFFFFFFFF MUL NOT AND SWAP1 DUP4 PUSH20 0xFFFFFFFFFFFFFFFFFFFFFFFFFFFFFFFFFFFFFFFF AND MUL OR SWAP1 SSTORE POP DUP1 PUSH20 0xFFFFFFFFFFFFFFFFFFFFFFFFFFFFFFFFFFFFFFFF AND PUSH32 0xCAAC1CDED5F66C118BA915F0FC60CD20A0924FCF956320B5230E70C8D5A773CA PUSH1 0x40 MLOAD PUSH1 0x40 MLOAD DUP1 SWAP2 SUB SWAP1 LOG2 POP JUMP JUMPDEST PUSH1 0x0 PUSH1 0x60 PUSH1 0x0 DUP1 PUSH1 0x0 PUSH1 0x3 SLOAD DUP7 LT PUSH2 0x5F5 JUMPI PUSH1 0x40 MLOAD PUSH32 0x8C379A000000000000000000000000000000000000000000000000000000000 DUP2 MSTORE PUSH1 0x4 ADD PUSH2 0x5EC SWAP1 PUSH2 0x1065 JUMP JUMPDEST PUSH1 0x40 MLOAD DUP1 SWAP2 SUB SWAP1 REVERT JUMPDEST PUSH1 0x0 PUSH1 0x2 DUP8 DUP2 SLOAD DUP2 LT PUSH2 0x60B JUMPI PUSH2 0x60A PUSH2 0x1085 JUMP JUMPDEST JUMPDEST SWAP1 PUSH1 0x0 MSTORE PUSH1 0x20 PUSH1 0x0 KECCAK256 SWAP1 PUSH1 0x5 MUL ADD SWAP1 POP DUP1 PUSH1 0x0 ADD PUSH1 0x0 SWAP1 SLOAD SWAP1 PUSH2 0x100 EXP SWAP1 DIV PUSH20 0xFFFFFFFFFFFFFFFFFFFFFFFFFFFFFFFFFFFFFFFF AND DUP2 PUSH1 0x1 ADD DUP3 PUSH1 0x2 ADD SLOAD DUP4 PUSH1 0x3 ADD SLOAD DUP5 PUSH1 0x4 ADD PUSH1 0x0 SWAP1 SLOAD SWAP1 PUSH2 0x100 EXP SWAP1 DIV PUSH1 0xFF AND DUP4 DUP1 SLOAD PUSH2 0x66C SWAP1 PUSH2 0xF7B JUMP JUMPDEST DUP1 PUSH1 0x1F ADD PUSH1 0x20 DUP1 SWAP2 DIV MUL PUSH1 0x20 ADD PUSH1 0x40 MLOAD SWAP1 DUP2 ADD PUSH1 0x40 MSTORE DUP1 SWAP3 SWAP2 SWAP1 DUP2 DUP2 MSTORE PUSH1 0x20 ADD DUP3 DUP1 SLOAD PUSH2 0x698 SWAP1 PUSH2 0xF7B JUMP JUMPDEST DUP1 ISZERO PUSH2 0x6E5 JUMPI DUP1 PUSH1 0x1F LT PUSH2 0x6BA JUMPI PUSH2 0x100 DUP1 DUP4 SLOAD DIV MUL DUP4 MSTORE SWAP2 PUSH1 0x20 ADD SWAP2 PUSH2 0x6E5 JUMP JUMPDEST DUP3 ADD SWAP2 SWAP1 PUSH1 0x0 MSTORE PUSH1 0x20 PUSH1 0x0 KECCAK256 SWAP1 JUMPDEST DUP2 SLOAD DUP2 MSTORE SWAP1 PUSH1 0x1 ADD SWAP1 PUSH1 0x20 ADD DUP1 DUP4 GT PUSH2 0x6C8 JUMPI DUP3 SWAP1 SUB PUSH1 0x1F AND DUP3 ADD SWAP2 JUMPDEST POP POP POP POP POP SWAP4 POP SWAP6 POP SWAP6 POP SWAP6 POP SWAP6 POP SWAP6 POP POP SWAP2 SWAP4 SWAP6 SWAP1 SWAP3 SWAP5 POP JUMP JUMPDEST PUSH1 0x1 PUSH1 0x0 SWAP1 SLOAD SWAP1 PUSH2 0x100 EXP SWAP1 DIV PUSH20 0xFFFFFFFFFFFFFFFFFFFFFFFFFFFFFFFFFFFFFFFF AND PUSH20 0xFFFFFFFFFFFFFFFFFFFFFFFFFFFFFFFFFFFFFFFF AND CALLER PUSH20 0xFFFFFFFFFFFFFFFFFFFFFFFFFFFFFFFFFFFFFFFF AND EQ PUSH2 0x790 JUMPI PUSH1 0x40 MLOAD PUSH32 0x8C379A000000000000000000000000000000000000000000000000000000000 DUP2 MSTORE PUSH1 0x4 ADD PUSH2 0x787 SWAP1 PUSH2 0xFF9 JUMP JUMPDEST PUSH1 0x40 MLOAD DUP1 SWAP2 SUB SWAP1 REVERT JUMPDEST PUSH1 0x2 PUSH1 0x40 MLOAD DUP1 PUSH1 0xA0 ADD PUSH1 0x40 MSTORE DUP1 DUP7 PUSH20 0xFFFFFFFFFFFFFFFFFFFFFFFFFFFFFFFFFFFFFFFF AND DUP2 MSTORE PUSH1 0x20 ADD DUP6 DUP2 MSTORE PUSH1 0x20 ADD DUP5 DUP2 MSTORE PUSH1 0x20 ADD DUP4 DUP2 MSTORE PUSH1 0x20 ADD PUSH1 0x0 ISZERO ISZERO DUP2 MSTORE POP SWAP1 DUP1 PUSH1 0x1 DUP2 SLOAD ADD DUP1 DUP3 SSTORE DUP1 SWAP2 POP POP PUSH1 0x1 SWAP1 SUB SWAP1 PUSH1 0x0 MSTORE PUSH1 0x20 PUSH1 0x0 KECCAK256 SWAP1 PUSH1 0x5 MUL ADD PUSH1 0x0 SWAP1 SWAP2 SWAP1 SWAP2 SWAP1 SWAP2 POP PUSH1 0x0 DUP3 ADD MLOAD DUP2 PUSH1 0x0 ADD PUSH1 0x0 PUSH2 0x100 EXP DUP2 SLOAD DUP2 PUSH20 0xFFFFFFFFFFFFFFFFFFFFFFFFFFFFFFFFFFFFFFFF MUL NOT AND SWAP1 DUP4 PUSH20 0xFFFFFFFFFFFFFFFFFFFFFFFFFFFFFFFFFFFFFFFF AND MUL OR SWAP1 SSTORE POP PUSH1 0x20 DUP3 ADD MLOAD DUP2 PUSH1 0x1 ADD SWAP1 DUP1 MLOAD SWAP1 PUSH1 0x20 ADD SWAP1 PUSH2 0x85E SWAP3 SWAP2 SWAP1 PUSH2 0xA8D JUMP JUMPDEST POP PUSH1 0x40 DUP3 ADD MLOAD DUP2 PUSH1 0x2 ADD SSTORE PUSH1 0x60 DUP3 ADD MLOAD DUP2 PUSH1 0x3 ADD SSTORE PUSH1 0x80 DUP3 ADD MLOAD DUP2 PUSH1 0x4 ADD PUSH1 0x0 PUSH2 0x100 EXP DUP2 SLOAD DUP2 PUSH1 0xFF MUL NOT AND SWAP1 DUP4 ISZERO ISZERO MUL OR SWAP1 SSTORE POP POP POP PUSH1 0x3 PUSH1 0x0 DUP2 SLOAD DUP1 SWAP3 SWAP2 SWAP1 PUSH2 0x8A8 SWAP1 PUSH2 0x114F JUMP JUMPDEST SWAP2 SWAP1 POP SSTORE POP DUP4 PUSH20 0xFFFFFFFFFFFFFFFFFFFFFFFFFFFFFFFFFFFFFFFF AND PUSH32 0xFDC73D0CB89F717CE84A38EF3D0396E5EB5A8C3AF40F3D0FC648B8571601F7F3 DUP5 DUP5 DUP5 PUSH1 0x40 MLOAD PUSH2 0x8F7 SWAP4 SWAP3 SWAP2 SWAP1 PUSH2 0x1198 JUMP JUMPDEST PUSH1 0x40 MLOAD DUP1 SWAP2 SUB SWAP1 LOG2 POP POP POP POP JUMP JUMPDEST PUSH1 0x3 SLOAD DUP2 JUMP JUMPDEST PUSH1 0x1 PUSH1 0x0 SWAP1 SLOAD SWAP1 PUSH2 0x100 EXP SWAP1 DIV PUSH20 0xFFFFFFFFFFFFFFFFFFFFFFFFFFFFFFFFFFFFFFFF AND PUSH20 0xFFFFFFFFFFFFFFFFFFFFFFFFFFFFFFFFFFFFFFFF AND CALLER PUSH20 0xFFFFFFFFFFFFFFFFFFFFFFFFFFFFFFFFFFFFFFFF AND EQ PUSH2 0x99B JUMPI PUSH1 0x40 MLOAD PUSH32 0x8C379A000000000000000000000000000000000000000000000000000000000 DUP2 MSTORE PUSH1 0x4 ADD PUSH2 0x992 SWAP1 PUSH2 0xFF9 JUMP JUMPDEST PUSH1 0x40 MLOAD DUP1 SWAP2 SUB SWAP1 REVERT JUMPDEST PUSH1 0x3 SLOAD DUP2 LT PUSH2 0x9DF JUMPI PUSH1 0x40 MLOAD PUSH32 0x8C379A000000000000000000000000000000000000000000000000000000000 DUP2 MSTORE PUSH1 0x4 ADD PUSH2 0x9D6 SWAP1 PUSH2 0x1065 JUMP JUMPDEST PUSH1 0x40 MLOAD DUP1 SWAP2 SUB SWAP1 REVERT JUMPDEST PUSH1 0x1 PUSH1 0x2 DUP3 DUP2 SLOAD DUP2 LT PUSH2 0x9F5 JUMPI PUSH2 0x9F4 PUSH2 0x1085 JUMP JUMPDEST JUMPDEST SWAP1 PUSH1 0x0 MSTORE PUSH1 0x20 PUSH1 0x0 KECCAK256 SWAP1 PUSH1 0x5 MUL ADD PUSH1 0x4 ADD PUSH1 0x0 PUSH2 0x100 EXP DUP2 SLOAD DUP2 PUSH1 0xFF MUL NOT AND SWAP1 DUP4 ISZERO ISZERO MUL OR SWAP1 SSTORE POP DUP1 PUSH32 0xEC59D58C5415CE6BE7C425872BEC7E9C1482EAF1FB023220ED20B45B5D1C0DE0 PUSH1 0x40 MLOAD PUSH1 0x40 MLOAD DUP1 SWAP2 SUB SWAP1 LOG2 POP JUMP JUMPDEST POP DUP1 SLOAD PUSH2 0xA59 SWAP1 PUSH2 0xF7B JUMP JUMPDEST PUSH1 0x0 DUP3 SSTORE DUP1 PUSH1 0x1F LT PUSH2 0xA6B JUMPI POP PUSH2 0xA8A JUMP JUMPDEST PUSH1 0x1F ADD PUSH1 0x20 SWAP1 DIV SWAP1 PUSH1 0x0 MSTORE PUSH1 0x20 PUSH1 0x0 KECCAK256 SWAP1 DUP2 ADD SWAP1 PUSH2 0xA89 SWAP2 SWAP1 PUSH2 0xB13 JUMP JUMPDEST JUMPDEST POP JUMP JUMPDEST DUP3 DUP1 SLOAD PUSH2 0xA99 SWAP1 PUSH2 0xF7B JUMP JUMPDEST SWAP1 PUSH1 0x0 MSTORE PUSH1 0x20 PUSH1 0x0 KECCAK256 SWAP1 PUSH1 0x1F ADD PUSH1 0x20 SWAP1 DIV DUP2 ADD SWAP3 DUP3 PUSH2 0xABB JUMPI PUSH1 0x0 DUP6 SSTORE PUSH2 0xB02 JUMP JUMPDEST DUP3 PUSH1 0x1F LT PUSH2 0xAD4 JUMPI DUP1 MLOAD PUSH1 0xFF NOT AND DUP4 DUP1 ADD OR DUP6 SSTORE PUSH2 0xB02 JUMP JUMPDEST DUP3 DUP1 ADD PUSH1 0x1 ADD DUP6 SSTORE DUP3 ISZERO PUSH2 0xB02 JUMPI SWAP2 DUP3 ADD JUMPDEST DUP3 DUP2 GT ISZERO PUSH2 0xB01 JUMPI DUP3 MLOAD DUP3 SSTORE SWAP2 PUSH1 0x20 ADD SWAP2 SWAP1 PUSH1 0x1 ADD SWAP1 PUSH2 0xAE6 JUMP JUMPDEST JUMPDEST POP SWAP1 POP PUSH2 0xB0F SWAP2 SWAP1 PUSH2 0xB13 JUMP JUMPDEST POP SWAP1 JUMP JUMPDEST JUMPDEST DUP1 DUP3 GT ISZERO PUSH2 0xB2C JUMPI PUSH1 0x0 DUP2 PUSH1 0x0 SWAP1 SSTORE POP PUSH1 0x1 ADD PUSH2 0xB14 JUMP JUMPDEST POP SWAP1 JUMP JUMPDEST PUSH1 0x0 PUSH1 0x40 MLOAD SWAP1 POP SWAP1 JUMP JUMPDEST PUSH1 0x0 DUP1 REVERT JUMPDEST PUSH1 0x0 DUP1 REVERT JUMPDEST PUSH1 0x0 DUP2 SWAP1 POP SWAP2 SWAP1 POP JUMP JUMPDEST PUSH2 0xB57 DUP2 PUSH2 0xB44 JUMP JUMPDEST DUP2 EQ PUSH2 0xB62 JUMPI PUSH1 0x0 DUP1 REVERT JUMPDEST POP JUMP JUMPDEST PUSH1 0x0 DUP2 CALLDATALOAD SWAP1 POP PUSH2 0xB74 DUP2 PUSH2 0xB4E JUMP JUMPDEST SWAP3 SWAP2 POP POP JUMP JUMPDEST PUSH1 0x0 PUSH1 0x20 DUP3 DUP5 SUB SLT ISZERO PUSH2 0xB90 JUMPI PUSH2 0xB8F PUSH2 0xB3A JUMP JUMPDEST JUMPDEST PUSH1 0x0 PUSH2 0xB9E DUP5 DUP3 DUP6 ADD PUSH2 0xB65 JUMP JUMPDEST SWAP2 POP POP SWAP3 SWAP2 POP POP JUMP JUMPDEST PUSH1 0x0 PUSH20 0xFFFFFFFFFFFFFFFFFFFFFFFFFFFFFFFFFFFFFFFF DUP3 AND SWAP1 POP SWAP2 SWAP1 POP JUMP JUMPDEST PUSH1 0x0 PUSH2 0xBD2 DUP3 PUSH2 0xBA7 JUMP JUMPDEST SWAP1 POP SWAP2 SWAP1 POP JUMP JUMPDEST PUSH2 0xBE2 DUP2 PUSH2 0xBC7 JUMP JUMPDEST DUP3 MSTORE POP POP JUMP JUMPDEST PUSH1 0x0 DUP2 MLOAD SWAP1 POP SWAP2 SWAP1 POP JUMP JUMPDEST PUSH1 0x0 DUP3 DUP3 MSTORE PUSH1 0x20 DUP3 ADD SWAP1 POP SWAP3 SWAP2 POP POP JUMP JUMPDEST PUSH1 0x0 JUMPDEST DUP4 DUP2 LT ISZERO PUSH2 0xC22 JUMPI DUP1 DUP3 ADD MLOAD DUP2 DUP5 ADD MSTORE PUSH1 0x20 DUP2 ADD SWAP1 POP PUSH2 0xC07 JUMP JUMPDEST DUP4 DUP2 GT ISZERO PUSH2 0xC31 JUMPI PUSH1 0x0 DUP5 DUP5 ADD MSTORE JUMPDEST POP POP POP POP JUMP JUMPDEST PUSH1 0x0 PUSH1 0x1F NOT PUSH1 0x1F DUP4 ADD AND SWAP1 POP SWAP2 SWAP1 POP JUMP JUMPDEST PUSH1 0x0 PUSH2 0xC53 DUP3 PUSH2 0xBE8 JUMP JUMPDEST PUSH2 0xC5D DUP2 DUP6 PUSH2 0xBF3 JUMP JUMPDEST SWAP4 POP PUSH2 0xC6D DUP2 DUP6 PUSH1 0x20 DUP7 ADD PUSH2 0xC04 JUMP JUMPDEST PUSH2 0xC76 DUP2 PUSH2 0xC37 JUMP JUMPDEST DUP5 ADD SWAP2 POP POP SWAP3 SWAP2 POP POP JUMP JUMPDEST PUSH2 0xC8A DUP2 PUSH2 0xB44 JUMP JUMPDEST DUP3 MSTORE POP POP JUMP JUMPDEST PUSH1 0x0 DUP2 ISZERO ISZERO SWAP1 POP SWAP2 SWAP1 POP JUMP JUMPDEST PUSH2 0xCA5 DUP2 PUSH2 0xC90 JUMP JUMPDEST DUP3 MSTORE POP POP JUMP JUMPDEST PUSH1 0x0 PUSH1 0xA0 DUP3 ADD SWAP1 POP PUSH2 0xCC0 PUSH1 0x0 DUP4 ADD DUP9 PUSH2 0xBD9 JUMP JUMPDEST DUP2 DUP2 SUB PUSH1 0x20 DUP4 ADD MSTORE PUSH2 0xCD2 DUP2 DUP8 PUSH2 0xC48 JUMP JUMPDEST SWAP1 POP PUSH2 0xCE1 PUSH1 0x40 DUP4 ADD DUP7 PUSH2 0xC81 JUMP JUMPDEST PUSH2 0xCEE PUSH1 0x60 DUP4 ADD DUP6 PUSH2 0xC81 JUMP JUMPDEST PUSH2 0xCFB PUSH1 0x80 DUP4 ADD DUP5 PUSH2 0xC9C JUMP JUMPDEST SWAP7 SWAP6 POP POP POP POP POP POP JUMP JUMPDEST PUSH1 0x0 PUSH1 0x20 DUP3 ADD SWAP1 POP PUSH2 0xD1A PUSH1 0x0 DUP4 ADD DUP5 PUSH2 0xBD9 JUMP JUMPDEST SWAP3 SWAP2 POP POP JUMP JUMPDEST PUSH2 0xD29 DUP2 PUSH2 0xBC7 JUMP JUMPDEST DUP2 EQ PUSH2 0xD34 JUMPI PUSH1 0x0 DUP1 REVERT JUMPDEST POP JUMP JUMPDEST PUSH1 0x0 DUP2 CALLDATALOAD SWAP1 POP PUSH2 0xD46 DUP2 PUSH2 0xD20 JUMP JUMPDEST SWAP3 SWAP2 POP POP JUMP JUMPDEST PUSH1 0x0 PUSH1 0x20 DUP3 DUP5 SUB SLT ISZERO PUSH2 0xD62 JUMPI PUSH2 0xD61 PUSH2 0xB3A JUMP JUMPDEST JUMPDEST PUSH1 0x0 PUSH2 0xD70 DUP5 DUP3 DUP6 ADD PUSH2 0xD37 JUMP JUMPDEST SWAP2 POP POP SWAP3 SWAP2 POP POP JUMP JUMPDEST PUSH1 0x0 DUP1 REVERT JUMPDEST PUSH1 0x0 DUP1 REVERT JUMPDEST PUSH32 0x4E487B7100000000000000000000000000000000000000000000000000000000 PUSH1 0x0 MSTORE PUSH1 0x41 PUSH1 0x4 MSTORE PUSH1 0x24 PUSH1 0x0 REVERT JUMPDEST PUSH2 0xDBB DUP3 PUSH2 0xC37 JUMP JUMPDEST DUP2 ADD DUP2 DUP2 LT PUSH8 0xFFFFFFFFFFFFFFFF DUP3 GT OR ISZERO PUSH2 0xDDA JUMPI PUSH2 0xDD9 PUSH2 0xD83 JUMP JUMPDEST JUMPDEST DUP1 PUSH1 0x40 MSTORE POP POP POP JUMP JUMPDEST PUSH1 0x0 PUSH2 0xDED PUSH2 0xB30 JUMP JUMPDEST SWAP1 POP PUSH2 0xDF9 DUP3 DUP3 PUSH2 0xDB2 JUMP JUMPDEST SWAP2 SWAP1 POP JUMP JUMPDEST PUSH1 0x0 PUSH8 0xFFFFFFFFFFFFFFFF DUP3 GT ISZERO PUSH2 0xE19 JUMPI PUSH2 0xE18 PUSH2 0xD83 JUMP JUMPDEST JUMPDEST PUSH2 0xE22 DUP3 PUSH2 0xC37 JUMP JUMPDEST SWAP1 POP PUSH1 0x20 DUP2 ADD SWAP1 POP SWAP2 SWAP1 POP JUMP JUMPDEST DUP3 DUP2 DUP4 CALLDATACOPY PUSH1 0x0 DUP4 DUP4 ADD MSTORE POP POP POP JUMP JUMPDEST PUSH1 0x0 PUSH2 0xE51 PUSH2 0xE4C DUP5 PUSH2 0xDFE JUMP JUMPDEST PUSH2 0xDE3 JUMP JUMPDEST SWAP1 POP DUP3 DUP2 MSTORE PUSH1 0x20 DUP2 ADD DUP5 DUP5 DUP5 ADD GT ISZERO PUSH2 0xE6D JUMPI PUSH2 0xE6C PUSH2 0xD7E JUMP JUMPDEST JUMPDEST PUSH2 0xE78 DUP5 DUP3 DUP6 PUSH2 0xE2F JUMP JUMPDEST POP SWAP4 SWAP3 POP POP POP JUMP JUMPDEST PUSH1 0x0 DUP3 PUSH1 0x1F DUP4 ADD SLT PUSH2 0xE95 JUMPI PUSH2 0xE94 PUSH2 0xD79 JUMP JUMPDEST JUMPDEST DUP2 CALLDATALOAD PUSH2 0xEA5 DUP5 DUP3 PUSH1 0x20 DUP7 ADD PUSH2 0xE3E JUMP JUMPDEST SWAP2 POP POP SWAP3 SWAP2 POP POP JUMP JUMPDEST PUSH1 0x0 DUP1 PUSH1 0x0 DUP1 PUSH1 0x80 DUP6 DUP8 SUB SLT ISZERO PUSH2 0xEC8 JUMPI PUSH2 0xEC7 PUSH2 0xB3A JUMP JUMPDEST JUMPDEST PUSH1 0x0 PUSH2 0xED6 DUP8 DUP3 DUP9 ADD PUSH2 0xD37 JUMP JUMPDEST SWAP5 POP POP PUSH1 0x20 DUP6 ADD CALLDATALOAD PUSH8 0xFFFFFFFFFFFFFFFF DUP2 GT ISZERO PUSH2 0xEF7 JUMPI PUSH2 0xEF6 PUSH2 0xB3F JUMP JUMPDEST JUMPDEST PUSH2 0xF03 DUP8 DUP3 DUP9 ADD PUSH2 0xE80 JUMP JUMPDEST SWAP4 POP POP PUSH1 0x40 PUSH2 0xF14 DUP8 DUP3 DUP9 ADD PUSH2 0xB65 JUMP JUMPDEST SWAP3 POP POP PUSH1 0x60 PUSH2 0xF25 DUP8 DUP3 DUP9 ADD PUSH2 0xB65 JUMP JUMPDEST SWAP2 POP POP SWAP3 SWAP6 SWAP2 SWAP5 POP SWAP3 POP JUMP JUMPDEST PUSH1 0x0 PUSH1 0x20 DUP3 ADD SWAP1 POP PUSH2 0xF46 PUSH1 0x0 DUP4 ADD DUP5 PUSH2 0xC81 JUMP JUMPDEST SWAP3 SWAP2 POP POP JUMP JUMPDEST PUSH32 0x4E487B7100000000000000000000000000000000000000000000000000000000 PUSH1 0x0 MSTORE PUSH1 0x22 PUSH1 0x4 MSTORE PUSH1 0x24 PUSH1 0x0 REVERT JUMPDEST PUSH1 0x0 PUSH1 0x2 DUP3 DIV SWAP1 POP PUSH1 0x1 DUP3 AND DUP1 PUSH2 0xF93 JUMPI PUSH1 0x7F DUP3 AND SWAP2 POP JUMPDEST PUSH1 0x20 DUP3 LT DUP2 EQ ISZERO PUSH2 0xFA7 JUMPI PUSH2 0xFA6 PUSH2 0xF4C JUMP JUMPDEST JUMPDEST POP SWAP2 SWAP1 POP JUMP JUMPDEST PUSH32 0x4E6F7420617574686F72697A65643A206261636B656E64206F6E6C7900000000 PUSH1 0x0 DUP3 ADD MSTORE POP JUMP JUMPDEST PUSH1 0x0 PUSH2 0xFE3 PUSH1 0x1C DUP4 PUSH2 0xBF3 JUMP JUMPDEST SWAP2 POP PUSH2 0xFEE DUP3 PUSH2 0xFAD JUMP JUMPDEST PUSH1 0x20 DUP3 ADD SWAP1 POP SWAP2 SWAP1 POP JUMP JUMPDEST PUSH1 0x0 PUSH1 0x20 DUP3 ADD SWAP1 POP DUP2 DUP2 SUB PUSH1 0x0 DUP4 ADD MSTORE PUSH2 0x1012 DUP2 PUSH2 0xFD6 JUMP JUMPDEST SWAP1 POP SWAP2 SWAP1 POP JUMP JUMPDEST PUSH32 0x496E76616C6964207265736572766174696F6E20494400000000000000000000 PUSH1 0x0 DUP3 ADD MSTORE POP JUMP JUMPDEST PUSH1 0x0 PUSH2 0x104F PUSH1 0x16 DUP4 PUSH2 0xBF3 JUMP JUMPDEST SWAP2 POP PUSH2 0x105A DUP3 PUSH2 0x1019 JUMP JUMPDEST PUSH1 0x20 DUP3 ADD SWAP1 POP SWAP2 SWAP1 POP JUMP JUMPDEST PUSH1 0x0 PUSH1 0x20 DUP3 ADD SWAP1 POP DUP2 DUP2 SUB PUSH1 0x0 DUP4 ADD MSTORE PUSH2 0x107E DUP2 PUSH2 0x1042 JUMP JUMPDEST SWAP1 POP SWAP2 SWAP1 POP JUMP JUMPDEST PUSH32 0x4E487B7100000000000000000000000000000000000000000000000000000000 PUSH1 0x0 MSTORE PUSH1 0x32 PUSH1 0x4 MSTORE PUSH1 0x24 PUSH1 0x0 REVERT JUMPDEST PUSH32 0x4E6F74206F776E65720000000000000000000000000000000000000000000000 PUSH1 0x0 DUP3 ADD MSTORE POP JUMP JUMPDEST PUSH1 0x0 PUSH2 0x10EA PUSH1 0x9 DUP4 PUSH2 0xBF3 JUMP JUMPDEST SWAP2 POP PUSH2 0x10F5 DUP3 PUSH2 0x10B4 JUMP JUMPDEST PUSH1 0x20 DUP3 ADD SWAP1 POP SWAP2 SWAP1 POP JUMP JUMPDEST PUSH1 0x0 PUSH1 0x20 DUP3 ADD SWAP1 POP DUP2 DUP2 SUB PUSH1 0x0 DUP4 ADD MSTORE PUSH2 0x1119 DUP2 PUSH2 0x10DD JUMP JUMPDEST SWAP1 POP SWAP2 SWAP1 POP JUMP JUMPDEST PUSH32 0x4E487B7100000000000000000000000000000000000000000000000000000000 PUSH1 0x0 MSTORE PUSH1 0x11 PUSH1 0x4 MSTORE PUSH1 0x24 PUSH1 0x0 REVERT JUMPDEST PUSH1 0x0 PUSH2 0x115A DUP3 PUSH2 0xB44 JUMP JUMPDEST SWAP2 POP PUSH32 0xFFFFFFFFFFFFFFFFFFFFFFFFFFFFFFFFFFFFFFFFFFFFFFFFFFFFFFFFFFFFFFFF DUP3 EQ ISZERO PUSH2 0x118D JUMPI PUSH2 0x118C PUSH2 0x1120 JUMP JUMPDEST JUMPDEST PUSH1 0x1 DUP3 ADD SWAP1 POP SWAP2 SWAP1 POP JUMP JUMPDEST PUSH1 0x0 PUSH1 0x60 DUP3 ADD SWAP1 POP DUP2 DUP2 SUB PUSH1 0x0 DUP4 ADD MSTORE PUSH2 0x11B2 DUP2 DUP7 PUSH2 0xC48 JUMP JUMPDEST SWAP1 POP PUSH2 0x11C1 PUSH1 0x20 DUP4 ADD DUP6 PUSH2 0xC81 JUMP JUMPDEST PUSH2 0x11CE PUSH1 0x40 DUP4 ADD DUP5 PUSH2 0xC81 JUMP JUMPDEST SWAP5 SWAP4 POP POP POP POP JUMP INVALID LOG2 PUSH5 0x6970667358 0x22 SLT KECCAK256 0xE7 SLT PUSH10 0xB6B9D6134E8CE1B27141 PUSH2 0xAD20 RETURN CALLDATASIZE 0xDA 0xB1 0x2F SWAP13 SWAP14 0xAC MSTORE8 DUP5 0xB0 PUSH22 0xD7D0E19864736F6C6343000809003300000000000000 "},"methodIdentifiers":{"authorizedBackend()":"49430bcf","bookCar(address,string,uint256,uint256)":"da61a8af","cancelReservation(uint256)":"ae5e6cf4","confirmReservation(uint256)":"ecc2ecdd","getReservation(uint256)":"d57763c3","owner()":"8da5cb5b","reservationCount()":"e84f756e","reservations(uint256)":"067cf832","setAuthorizedBackend(address)":"afcba247"}}}}}