{
  "_format": "hh-sol-artifact-1",
  "contractName": "CarRental",
  "sourceName": "contracts/CarRental.sol",
  "abi": [
    {
      "inputs": [
        {
          "internalType": "address",
          "name": "_authorizedBackend",
          "type": "address"
        }
      ],
      "stateMutability": "nonpayable",
      "type": "constructor"
    },
    {
      "anonymous": false,
      "inputs": [
        {
          "indexed": true,
          "internalType": "address",
          "name": "backend",
          "type": "address"
        }
      ],
      "name": "BackendAuthorized",
      "type": "event"
    },
    {
      "anonymous": false,
      "inputs": [
        {
          "indexed": true,
          "internalType": "address",
          "name": "renter",
          "type": "address"
        },
        {
          "indexed": false,
          "internalType": "string",
          "name": "carType",
          "type": "string"
        },
        {
          "indexed": false,
          "internalType": "uint256",
          "name": "pickUpDate",
          "type": "uint256"
        },
        {
          "indexed": false,
          "internalType": "uint256",
          "name": "dropOffDate",
          "type": "uint256"
        }
      ],
      "name": "CarBooked",
      "type": "event"
    },
    {
      "anonymous": false,
      "inputs": [
        {
          "indexed": true,
          "internalType": "uint256",
          "name": "reservationId",
          "type": "uint256"
        }
      ],
      "name": "ReservationCanceled",
      "type": "event"
    },
    {
      "anonymous": false,
      "inputs": [
        {
          "indexed": true,
          "internalType": "uint256",
          "name": "reservationId",
          "type": "uint256"
        }
      ],
      "name": "ReservationConfirmed",
      "type": "event"
    },
    {
      "inputs": [],
      "name": "authorizedBackend",
      "outputs": [
        {
          "internalType": "address",
          "name": "",
          "type": "address"
        }
      ],
      "stateMutability": "view",
      "type": "function"
    },
    {
      "inputs": [
        {
          "internalType": "address",
          "name": "_renter",
          "type": "address"
        },
        {
          "internalType": "string",
          "name": "_carType",
          "type": "string"
        },
        {
          "internalType": "uint256",
          "name": "_pickUpDate",
          "type": "uint256"
        },
        {
          "internalType": "uint256",
          "name": "_dropOffDate",
          "type": "uint256"
        }
      ],
      "name": "bookCar",
      "outputs": [],
      "stateMutability": "nonpayable",
      "type": "function"
    },
    {
      "inputs": [
        {
          "internalType": "uint256",
          "name": "_reservationId",
          "type": "uint256"
        }
      ],
      "name": "cancelReservation",
      "outputs": [],
      "stateMutability": "nonpayable",
      "type": "function"
    },
    {
      "inputs": [
        {
          "internalType": "uint256",
          "name": "_reservationId",
          "type": "uint256"
        }
      ],
      "name": "confirmReservation",
      "outputs": [],
      "stateMutability": "nonpayable",
      "type": "function"
    },
    {
      "inputs": [
        {
          "internalType": "uint256",
          "name": "_reservationId",
          "type": "uint256"
        }
      ],
      "name": "getReservation",
      "outputs": [
        {
          "internalType": "address",
          "name": "renter",
          "type": "address"
        },
        {
          "internalType": "string",
          "name": "carType",
          "type": "string"
        },
        {
          "internalType": "uint256",
          "name": "pickUpDate",
          "type": "uint256"
        },
        {
          "internalType": "uint256",
          "name": "dropOffDate",
          "type": "uint256"
        },
        {
          "internalType": "bool",
          "name": "confirmed",
          "type": "bool"
        }
      ],
      "stateMutability": "view",
      "type": "function"
    },
    {
      "inputs": [],
      "name": "owner",
      "outputs": [
        {
          "internalType": "address",
          "name": "",
          "type": "address"
        }
      ],
      "stateMutability": "view",
      "type": "function"
    },
    {
      "inputs": [],
      "name": "reservationCount",
      "outputs": [
        {
          "internalType": "uint256",
          "name": "",
          "type": "uint256"
        }
      ],
      "stateMutability": "view",
      "type": "function"
    },
    {
      "inputs": [
        {
          "internalType": "uint256",
          "name": "",
          "type": "uint256"
        }
      ],
      "name": "reservations",
      "outputs": [
        {
          "internalType": "address",
          "name": "renter",
          "type": "address"
        },
        {
          "internalType": "string",
          "name": "carType",
          "type": "string"
        },
        {
          "internalType": "uint256",
          "name": "pickUpDate",
          "type": "uint256"
        },
        {
          "internalType": "uint256",
          "name": "dropOffDate",
          "type": "uint256"
        },
        {
          "internalType": "bool",
          "name": "confirmed",
          "type": "bool"
        }
      ],
      "stateMutability": "view",
      "type": "function"
    },
    {
      "inputs": [
        {
          "internalType": "address",
          "name": "_backend",
          "type": "address"
        }
      ],
      "name": "setAuthorizedBackend",
      "outputs": [],
      "stateMutability": "nonpayable",
      "type": "function"
    }
  ],
  "bytecode": "0x60806040523480156200001157600080fd5b50604051620013c2380380620013c2833981810160405281019062000037919062000174565b336000806101000a81548173ffffffffffffffffffffffffffffffffffffffff021916908373ffffffffffffffffffffffffffffffffffffffff16021790555080600160006101000a81548173ffffffffffffffffffffffffffffffffffffffff021916908373ffffffffffffffffffffffffffffffffffffffff16021790555060006003819055508073ffffffffffffffffffffffffffffffffffffffff167fcaac1cded5f66c118ba915f0fc60cd20a0924fcf956320b5230e70c8d5a773ca60405160405180910390a250620001a6565b600080fd5b600073ffffffffffffffffffffffffffffffffffffffff82169050919050565b60006200013c826200010f565b9050919050565b6200014e816200012f565b81146200015a57600080fd5b50565b6000815190506200016e8162000143565b92915050565b6000602082840312156200018d576200018c6200010a565b5b60006200019d848285016200015d565b91505092915050565b61120c80620001b66000396000f3fe608060405234801561001057600080fd5b50600436106100935760003560e01c8063afcba24711610066578063afcba24714610124578063d57763c314610140578063da61a8af14610174578063e84f756e14610190578063ecc2ecdd146101ae57610093565b8063067cf8321461009857806349430bcf146100cc5780638da5cb5b146100ea578063ae5e6cf414610108575b600080fd5b6100b260048036038101906100ad9190610b7a565b6101ca565b6040516100c3959493929190610cab565b60405180910390f35b6100d46102c5565b6040516100e19190610d05565b60405180910390f35b6100f26102eb565b6040516100ff9190610d05565b60405180910390f35b610122600480360381019061011d9190610b7a565b61030f565b005b61013e60048036038101906101399190610d4c565b610493565b005b61015a60048036038101906101559190610b7a565b6105a8565b60405161016b959493929190610cab565b60405180910390f35b61018e60048036038101906101899190610eae565b610700565b005b610198610905565b6040516101a59190610f31565b60405180910390f35b6101c860048036038101906101c39190610b7a565b61090b565b005b600281815481106101da57600080fd5b90600052602060002090600502016000915090508060000160009054906101000a900473ffffffffffffffffffffffffffffffffffffffff169080600101805461022390610f7b565b80601f016020809104026020016040519081016040528092919081815260200182805461024f90610f7b565b801561029c5780601f106102715761010080835404028352916020019161029c565b820191906000526020600020905b81548152906001019060200180831161027f57829003601f168201915b5050505050908060020154908060030154908060040160009054906101000a900460ff16905085565b600160009054906101000a900473ffffffffffffffffffffffffffffffffffffffff1681565b60008054906101000a900473ffffffffffffffffffffffffffffffffffffffff1681565b600160009054906101000a900473ffffffffffffffffffffffffffffffffffffffff1673ffffffffffffffffffffffffffffffffffffffff163373ffffffffffffffffffffffffffffffffffffffff161461039f576040517f08c379a000000000000000000000000000000000000000000000000000000000815260040161039690610ff9565b60405180910390fd5b60035481106103e3576040517f08c379a00000000000000000000000000000000000000000000000000000000081526004016103da90611065565b60405180910390fd5b600281815481106103f7576103f6611085565b5b9060005260206000209060050201600080820160006101000a81549073ffffffffffffffffffffffffffffffffffffffff021916905560018201600061043d9190610a4d565b600282016000905560038201600090556004820160006101000a81549060ff02191690555050807f81a9339e192f17a2544892f6f54b4b2c4d16184d3ac5cbcd45146fe360d753af60405160405180910390a250565b60008054906101000a900473ffffffffffffffffffffffffffffffffffffffff1673ffffffffffffffffffffffffffffffffffffffff163373ffffffffffffffffffffffffffffffffffffffff1614610521576040517f08c379a000000000000000000000000000000000000000000000000000000000815260040161051890611100565b60405180910390fd5b80600160006101000a81548173ffffffffffffffffffffffffffffffffffffffff021916908373ffffffffffffffffffffffffffffffffffffffff1602179055508073ffffffffffffffffffffffffffffffffffffffff167fcaac1cded5f66c118ba915f0fc60cd20a0924fcf956320b5230e70c8d5a773ca60405160405180910390a250565b60006060600080600060035486106105f5576040517f08c379a00000000000000000000000000000000000000000000000000000000081526004016105ec90611065565b60405180910390fd5b60006002878154811061060b5761060a611085565b5b906000526020600020906005020190508060000160009054906101000a900473ffffffffffffffffffffffffffffffffffffffff1681600101826002015483600301548460040160009054906101000a900460ff1683805461066c90610f7b565b80601f016020809104026020016040519081016040528092919081815260200182805461069890610f7b565b80156106e55780601f106106ba576101008083540402835291602001916106e5565b820191906000526020600020905b8154815290600101906020018083116106c857829003601f168201915b50505050509350955095509550955095505091939590929450565b600160009054906101000a900473ffffffffffffffffffffffffffffffffffffffff1673ffffffffffffffffffffffffffffffffffffffff163373ffffffffffffffffffffffffffffffffffffffff1614610790576040517f08c379a000000000000000000000000000000000000000000000000000000000815260040161078790610ff9565b60405180910390fd5b60026040518060a001604052808673ffffffffffffffffffffffffffffffffffffffff16815260200185815260200184815260200183815260200160001515815250908060018154018082558091505060019003906000526020600020906005020160009091909190915060008201518160000160006101000a81548173ffffffffffffffffffffffffffffffffffffffff021916908373ffffffffffffffffffffffffffffffffffffffff160217905550602082015181600101908051906020019061085e929190610a8d565b50604082015181600201556060820151816003015560808201518160040160006101000a81548160ff0219169083151502179055505050600360008154809291906108a89061114f565b91905055508373ffffffffffffffffffffffffffffffffffffffff167ffdc73d0cb89f717ce84a38ef3d0396e5eb5a8c3af40f3d0fc648b8571601f7f38484846040516108f793929190611198565b60405180910390a250505050565b60035481565b600160009054906101000a900473ffffffffffffffffffffffffffffffffffffffff1673ffffffffffffffffffffffffffffffffffffffff163373ffffffffffffffffffffffffffffffffffffffff161461099b576040517f08c379a000000000000000000000000000000000000000000000000000000000815260040161099290610ff9565b60405180910390fd5b60035481106109df576040517f08c379a00000000000000000000000000000000000000000000000000000000081526004016109d690611065565b60405180910390fd5b6001600282815481106109f5576109f4611085565b5b906000526020600020906005020160040160006101000a81548160ff021916908315150217905550807fec59d58c5415ce6be7c425872bec7e9c1482eaf1fb023220ed20b45b5d1c0de060405160405180910390a250565b508054610a5990610f7b565b6000825580601f10610a6b5750610a8a565b601f016020900490600052602060002090810190610a899190610b13565b5b50565b828054610a9990610f7b565b90600052602060002090601f016020900481019282610abb5760008555610b02565b82601f10610ad457805160ff1916838001178555610b02565b82800160010185558215610b02579182015b82811115610b01578251825591602001919060010190610ae6565b5b509050610b0f9190610b13565b5090565b5b80821115610b2c576000816000905550600101610b14565b5090565b6000604051905090565b600080fd5b600080fd5b6000819050919050565b610b5781610b44565b8114610b6257600080fd5b50565b600081359050610b7481610b4e565b92915050565b600060208284031215610b9057610b8f610b3a565b5b6000610b9e84828501610b65565b91505092915050565b600073ffffffffffffffffffffffffffffffffffffffff82169050919050565b6000610bd282610ba7565b9050919050565b610be281610bc7565b82525050565b600081519050919050565b600082825260208201905092915050565b60005b83811015610c22578082015181840152602081019050610c07565b83811115610c31576000848401525b50505050565b6000601f19601f8301169050919050565b6000610c5382610be8565b610c5d8185610bf3565b9350610c6d818560208601610c04565b610c7681610c37565b840191505092915050565b610c8a81610b44565b82525050565b60008115159050919050565b610ca581610c90565b82525050565b600060a082019050610cc06000830188610bd9565b8181036020830152610cd28187610c48565b9050610ce16040830186610c81565b610cee6060830185610c81565b610cfb6080830184610c9c565b9695505050505050565b6000602082019050610d1a6000830184610bd9565b92915050565b610d2981610bc7565b8114610d3457600080fd5b50565b600081359050610d4681610d20565b92915050565b600060208284031215610d6257610d61610b3a565b5b6000610d7084828501610d37565b91505092915050565b600080fd5b600080fd5b7f4e487b7100000000000000000000000000000000000000000000000000000000600052604160045260246000fd5b610dbb82610c37565b810181811067ffffffffffffffff82111715610dda57610dd9610d83565b5b80604052505050565b6000610ded610b30565b9050610df98282610db2565b919050565b600067ffffffffffffffff821115610e1957610e18610d83565b5b610e2282610c37565b9050602081019050919050565b82818337600083830152505050565b6000610e51610e4c84610dfe565b610de3565b905082815260208101848484011115610e6d57610e6c610d7e565b5b610e78848285610e2f565b509392505050565b600082601f830112610e9557610e94610d79565b5b8135610ea5848260208601610e3e565b91505092915050565b60008060008060808587031215610ec857610ec7610b3a565b5b6000610ed687828801610d37565b945050602085013567ffffffffffffffff811115610ef757610ef6610b3f565b5b610f0387828801610e80565b9350506040610f1487828801610b65565b9250506060610f2587828801610b65565b91505092959194509250565b6000602082019050610f466000830184610c81565b92915050565b7f4e487b7100000000000000000000000000000000000000000000000000000000600052602260045260246000fd5b60006002820490506001821680610f9357607f821691505b60208210811415610fa757610fa6610f4c565b5b50919050565b7f4e6f7420617574686f72697a65643a206261636b656e64206f6e6c7900000000600082015250565b6000610fe3601c83610bf3565b9150610fee82610fad565b602082019050919050565b6000602082019050818103600083015261101281610fd6565b9050919050565b7f496e76616c6964207265736572766174696f6e20494400000000000000000000600082015250565b600061104f601683610bf3565b915061105a82611019565b602082019050919050565b6000602082019050818103600083015261107e81611042565b9050919050565b7f4e487b7100000000000000000000000000000000000000000000000000000000600052603260045260246000fd5b7f4e6f74206f776e65720000000000000000000000000000000000000000000000600082015250565b60006110ea600983610bf3565b91506110f5826110b4565b602082019050919050565b60006020820190508181036000830152611119816110dd565b9050919050565b7f4e487b7100000000000000000000000000000000000000000000000000000000600052601160045260246000fd5b600061115a82610b44565b91507fffffffffffffffffffffffffffffffffffffffffffffffffffffffffffffffff82141561118d5761118c611120565b5b600182019050919050565b600060608201905081810360008301526111b28186610c48565b90506111c16020830185610c81565b6111ce6040830184610c81565b94935050505056fea2646970667358221220e71269b6b9d6134e8ce1b2714161ad20f336dab12f9c9dac5384b075d7d0e19864736f6c63430008090033",
  "linkReferences": {},
  "deployedLinkReferences": {}
}