{
  "_format": "hh-sol-artifact-1",
  "contractName": "CarRental",
  "sourceName": "contracts/CarRental.sol",
  "abi": [
    {
      "inputs": [
        {
          "internalType": "address",
          "name": "_authorizedBackend",
          "type": "address"
        }
      ],
      "stateMutability": "nonpayable",
      "type": "constructor"
    },
    {
      "anonymous": false,
      "inputs": [
        {
          "indexed": true,
          "internalType": "address",
          "name": "backend",
          "type": "address"
        }
      ],
      "name": "BackendAuthorized",
      "type": "event"
    },
    {
      "anonymous": false,
      "inputs": [
        {
          "indexed": true,
          "internalType": "address",
          "name": "renter",
          "type": "address"
        },
        {
          "indexed": false,
          "internalType": "string",
          "name": "carType",
          "type": "string"
        },
        {
          "indexed": false,
          "internalType": "uint256",
          "name": "pickUpDate",
          "type": "uint256"
        },
        {
          "indexed": false,
          "internalType": "uint256",
          "name": "dropOffDate",
          "type": "uint256"
        }
      ],
      "name": "CarBooked",
      "type": "event"
    },
    {
      "anonymous": false,
      "inputs": [
        {
          "indexed": true,
          "internalType": "uint256",
          "name": "reservationId",
          "type": "uint256"
        },
        {
          "indexed": true,
          "internalType": "address",
          "name": "renter",
          "type": "address"
        },
        {
          "indexed": false,
          "internalType": "string",
          "name": "reason",
          "type": "string"
        }
      ],
      "name": "DisputeRaised",
      "type": "event"
    },
    {
      "anonymous": false,
      "inputs": [
        {
          "indexed": true,
          "internalType": "uint256",
          "name": "reservationId",
          "type": "uint256"
        },
        {
          "indexed": true,
          "internalType": "address",
          "name": "resolver",
          "type": "address"
        },
        {
          "indexed": false,
          "internalType": "bool",
          "name": "refunded",
          "type": "bool"
        }
      ],
      "name": "DisputeResolved",
      "type": "event"
    },
    {
      "anonymous": false,
      "inputs": [
        {
          "indexed": true,
          "internalType": "address",
          "name": "owner",
          "type": "address"
        },
        {
          "indexed": false,
          "internalType": "uint256",
          "name": "amount",
          "type": "uint256"
        }
      ],
      "name": "FundsWithdrawn",
      "type": "event"
    },
    {
      "anonymous": false,
      "inputs": [
        {
          "indexed": true,
          "internalType": "uint256",
          "name": "reservationId",
          "type": "uint256"
        },
        {
          "indexed": true,
          "internalType": "address",
          "name": "renter",
          "type": "address"
        },
        {
          "indexed": false,
          "internalType": "uint256",
          "name": "amount",
          "type": "uint256"
        }
      ],
      "name": "PaymentReceived",
      "type": "event"
    },
    {
      "anonymous": false,
      "inputs": [
        {
          "indexed": false,
          "internalType": "uint256",
          "name": "newFee",
          "type": "uint256"
        }
      ],
      "name": "RentalFeeUpdated",
      "type": "event"
    },
    {
      "anonymous": false,
      "inputs": [
        {
          "indexed": true,
          "internalType": "uint256",
          "name": "reservationId",
          "type": "uint256"
        }
      ],
      "name": "ReservationCanceled",
      "type": "event"
    },
    {
      "anonymous": false,
      "inputs": [
        {
          "indexed": true,
          "internalType": "uint256",
          "name": "reservationId",
          "type": "uint256"
        }
      ],
      "name": "ReservationConfirmed",
      "type": "event"
    },
    {
      "inputs": [],
      "name": "authorizedBackend",
      "outputs": [
        {
          "internalType": "address",
          "name": "",
          "type": "address"
        }
      ],
      "stateMutability": "view",
      "type": "function"
    },
    {
      "inputs": [
        {
          "internalType": "address",
          "name": "_renter",
          "type": "address"
        },
        {
          "internalType": "string",
          "name": "_carType",
          "type": "string"
        },
        {
          "internalType": "uint256",
          "name": "_pickUpDate",
          "type": "uint256"
        },
        {
          "internalType": "uint256",
          "name": "_dropOffDate",
          "type": "uint256"
        }
      ],
      "name": "bookCar",
      "outputs": [],
      "stateMutability": "payable",
      "type": "function"
    },
    {
      "inputs": [
        {
          "internalType": "uint256",
          "name": "_reservationId",
          "type": "uint256"
        }
      ],
      "name": "cancelReservation",
      "outputs": [],
      "stateMutability": "nonpayable",
      "type": "function"
    },
    {
      "inputs": [
        {
          "internalType": "uint256",
          "name": "_reservationId",
          "type": "uint256"
        }
      ],
      "name": "confirmReservation",
      "outputs": [],
      "stateMutability": "nonpayable",
      "type": "function"
    },
    {
      "inputs": [
        {
          "internalType": "uint256",
          "name": "",
          "type": "uint256"
        }
      ],
      "name": "disputes",
      "outputs": [
        {
          "internalType": "address",
          "name": "renter",
          "type": "address"
        },
        {
          "internalType": "string",
          "name": "reason",
          "type": "string"
        },
        {
          "internalType": "bool",
          "name": "raised",
          "type": "bool"
        },
        {
          "internalType": "enum CarRental.DisputeOutcome",
          "name": "outcome",
          "type": "uint8"
        }
      ],
      "stateMutability": "view",
      "type": "function"
    },
    {
      "inputs": [
        {
          "internalType": "uint256",
          "name": "_reservationId",
          "type": "uint256"
        }
      ],
      "name": "getDispute",
      "outputs": [
        {
          "internalType": "address",
          "name": "renter",
          "type": "address"
        },
        {
          "internalType": "string",
          "name": "reason",
          "type": "string"
        },
        {
          "internalType": "bool",
          "name": "raised",
          "type": "bool"
        },
        {
          "internalType": "enum CarRental.DisputeOutcome",
          "name": "outcome",
          "type": "uint8"
        }
      ],
      "stateMutability": "view",
      "type": "function"
    },
    {
      "inputs": [
        {
          "internalType": "uint256",
          "name": "_reservationId",
          "type": "uint256"
        }
      ],
      "name": "getReservation",
      "outputs": [
        {
          "internalType": "address",
          "name": "renter",
          "type": "address"
        },
        {
          "internalType": "string",
          "name": "carType",
          "type": "string"
        },
        {
          "internalType": "uint256",
          "name": "pickUpDate",
          "type": "uint256"
        },
        {
          "internalType": "uint256",
          "name": "dropOffDate",
          "type": "uint256"
        },
        {
          "internalType": "bool",
          "name": "confirmed",
          "type": "bool"
        }
      ],
      "stateMutability": "view",
      "type": "function"
    },
    {
      "inputs": [],
      "name": "owner",
      "outputs": [
        {
          "internalType": "address",
          "name": "",
          "type": "address"
        }
      ],
      "stateMutability": "view",
      "type": "function"
    },
    {
      "inputs": [
        {
          "internalType": "uint256",
          "name": "_reservationId",
          "type": "uint256"
        },
        {
          "internalType": "string",
          "name": "_reason",
          "type": "string"
        }
      ],
      "name": "raiseDispute",
      "outputs": [],
      "stateMutability": "nonpayable",
      "type": "function"
    },
    {
      "inputs": [],
      "name": "rentalFee",
      "outputs": [
        {
          "internalType": "uint256",
          "name": "",
          "type": "uint256"
        }
      ],
      "stateMutability": "view",
      "type": "function"
    },
    {
      "inputs": [],
      "name": "reservationCount",
      "outputs": [
        {
          "internalType": "uint256",
          "name": "",
          "type": "uint256"
        }
      ],
      "stateMutability": "view",
      "type": "function"
    },
    {
      "inputs": [
        {
          "internalType": "uint256",
          "name": "",
          "type": "uint256"
        }
      ],
      "name": "reservationPayments",
      "outputs": [
        {
          "internalType": "uint256",
          "name": "",
          "type": "uint256"
        }
      ],
      "stateMutability": "view",
      "type": "function"
    },
    {
      "inputs": [
        {
          "internalType": "uint256",
          "name": "",
          "type": "uint256"
        }
      ],
      "name": "reservations",
      "outputs": [
        {
          "internalType": "address",
          "name": "renter",
          "type": "address"
        },
        {
          "internalType": "string",
          "name": "carType",
          "type": "string"
        },
        {
          "internalType": "uint256",
          "name": "pickUpDate",
          "type": "uint256"
        },
        {
          "internalType": "uint256",
          "name": "dropOffDate",
          "type": "uint256"
        },
        {
          "internalType": "bool",
          "name": "confirmed",
          "type": "bool"
        }
      ],
      "stateMutability": "view",
      "type": "function"
    },
    {
      "inputs": [
        {
          "internalType": "uint256",
          "name": "_reservationId",
          "type": "uint256"
        },
        {
          "internalType": "bool",
          "name": "_refund",
          "type": "bool"
        }
      ],
      "name": "resolveDispute",
      "outputs": [],
      "stateMutability": "nonpayable",
      "type": "function"
    },
    {
      "inputs": [
        {
          "internalType": "address",
          "name": "_backend",
          "type": "address"
        }
      ],
      "name": "setAuthorizedBackend",
      "outputs": [],
      "stateMutability": "nonpayable",
      "type": "function"
    },
    {
      "inputs": [
        {
          "internalType": "uint256",
          "name": "_fee",
          "type": "uint256"
        }
      ],
      "name": "setRentalFee",
      "outputs": [],
      "stateMutability": "nonpayable",
      "type": "function"
    },
    {
      "inputs": [],
      "name": "withdraw",
      "outputs": [],
      "stateMutability": "nonpayable",
      "type": "function"
    }
  ],
  "bytecode": "0x60806040523480156200001157600080fd5b506040516200257138038062002571833981810160405281019062000037919062000174565b336000806101000a81548173ffffffffffffffffffffffffffffffffffffffff021916908373ffffffffffffffffffffffffffffffffffffffff16021790555080600160006101000a81548173ffffffffffffffffffffffffffffffffffffffff021916908373ffffffffffffffffffffffffffffffffffffffff16021790555060006004819055508073ffffffffffffffffffffffffffffffffffffffff167fcaac1cded5f66c118ba915f0fc60cd20a0924fcf956320b5230e70c8d5a773ca60405160405180910390a250620001a6565b600080fd5b600073ffffffffffffffffffffffffffffffffffffffff82169050919050565b60006200013c826200010f565b9050919050565b6200014e816200012f565b81146200015a57600080fd5b50565b6000815190506200016e8162000143565b92915050565b6000602082840312156200018d576200018c6200010a565b5b60006200019d848285016200015d565b91505092915050565b6123bb80620001b66000396000f3fe6080604052600436106100fd5760003560e01c806362f1770911610095578063d57763c311610064578063d57763c314610325578063da61a8af14610366578063e3a96cbd14610382578063e84f756e146103c2578063ecc2ecdd146103ed576100fd565b806362f177091461026b5780638da5cb5b146102a8578063ae5e6cf4146102d3578063afcba247146102fc576100fd565b80634876956b116100d15780634876956b146101ac57806349430bcf146101d7578063564a565d146102025780635aef573c14610242576100fd565b806286d90414610102578063067cf8321461012b57806334b25ee21461016c5780633ccfd60b14610195575b600080fd5b34801561010e57600080fd5b5061012960048036038101906101249190611893565b610416565b005b34801561013757600080fd5b50610152600480360381019061014d9190611893565b6104e5565b6040516101639594939291906119c4565b60405180910390f35b34801561017857600080fd5b50610193600480360381019061018e9190611a4a565b6105e0565b005b3480156101a157600080fd5b506101aa61079f565b005b3480156101b857600080fd5b506101c16109b4565b6040516101ce9190611a8a565b60405180910390f35b3480156101e357600080fd5b506101ec6109ba565b6040516101f99190611aa5565b60405180910390f35b34801561020e57600080fd5b5061022960048036038101906102249190611893565b6109e0565b6040516102399493929190611b37565b60405180910390f35b34801561024e57600080fd5b5061026960048036038101906102649190611cb8565b610ad2565b005b34801561027757600080fd5b50610292600480360381019061028d9190611893565b610e31565b60405161029f9190611a8a565b60405180910390f35b3480156102b457600080fd5b506102bd610e49565b6040516102ca9190611aa5565b60405180910390f35b3480156102df57600080fd5b506102fa60048036038101906102f59190611893565b610e6d565b005b34801561030857600080fd5b50610323600480360381019061031e9190611d40565b610ff1565b005b34801561033157600080fd5b5061034c60048036038101906103479190611893565b611106565b60405161035d9594939291906119c4565b60405180910390f35b610380600480360381019061037b9190611d6d565b61125e565b005b34801561038e57600080fd5b506103a960048036038101906103a49190611893565b611517565b6040516103b99493929190611b37565b60405180910390f35b3480156103ce57600080fd5b506103d761161e565b6040516103e49190611a8a565b60405180910390f35b3480156103f957600080fd5b50610414600480360381019061040f9190611893565b611624565b005b60008054906101000a900473ffffffffffffffffffffffffffffffffffffffff1673ffffffffffffffffffffffffffffffffffffffff163373ffffffffffffffffffffffffffffffffffffffff16146104a4576040517f08c379a000000000000000000000000000000000000000000000000000000000815260040161049b90611e3c565b60405180910390fd5b806002819055507f320d2aa8faf14b9d8b3ffc8a26aa832110b7eb5d163bd13d83b6fe8212635bac816040516104da9190611a8a565b60405180910390a150565b600381815481106104f557600080fd5b90600052602060002090600502016000915090508060000160009054906101000a900473ffffffffffffffffffffffffffffffffffffffff169080600101805461053e90611e8b565b80601f016020809104026020016040519081016040528092919081815260200182805461056a90611e8b565b80156105b75780601f1061058c576101008083540402835291602001916105b7565b820191906000526020600020905b81548152906001019060200180831161059a57829003601f168201915b5050505050908060020154908060030154908060040160009054906101000a900460ff16905085565b60008054906101000a900473ffffffffffffffffffffffffffffffffffffffff1673ffffffffffffffffffffffffffffffffffffffff163373ffffffffffffffffffffffffffffffffffffffff161461066e576040517f08c379a000000000000000000000000000000000000000000000000000000000815260040161066590611e3c565b60405180910390fd5b6006600083815260200190815260200160002060020160009054906101000a900460ff166106d1576040517f08c379a00000000000000000000000000000000000000000000000000000000081526004016106c890611f09565b60405180910390fd5b60006006600084815260200190815260200160002060020160006101000a81548160ff0219169083151502179055508061070c57600261070f565b60015b6006600084815260200190815260200160002060020160016101000a81548160ff0219169083600281111561074757610746611ac0565b5b02179055503373ffffffffffffffffffffffffffffffffffffffff16827f8fdd4548a8481406b6e29c0d6f25e27cd72502f79f4adf409468502e7920dabc836040516107939190611f29565b60405180910390a35050565b60008054906101000a900473ffffffffffffffffffffffffffffffffffffffff1673ffffffffffffffffffffffffffffffffffffffff163373ffffffffffffffffffffffffffffffffffffffff161461082d576040517f08c379a000000000000000000000000000000000000000000000000000000000815260040161082490611e3c565b60405180910390fd5b600047905060008111610875576040517f08c379a000000000000000000000000000000000000000000000000000000000815260040161086c90611f90565b60405180910390fd5b60008060009054906101000a900473ffffffffffffffffffffffffffffffffffffffff1673ffffffffffffffffffffffffffffffffffffffff16826040516108bc90611fe1565b60006040518083038185875af1925050503d80600081146108f9576040519150601f19603f3d011682016040523d82523d6000602084013e6108fe565b606091505b5050905080610942576040517f08c379a000000000000000000000000000000000000000000000000000000000815260040161093990612042565b60405180910390fd5b60008054906101000a900473ffffffffffffffffffffffffffffffffffffffff1673ffffffffffffffffffffffffffffffffffffffff167feaff4b37086828766ad3268786972c0cd24259d4c87a80f9d3963a3c3d999b0d836040516109a89190611a8a565b60405180910390a25050565b60025481565b600160009054906101000a900473ffffffffffffffffffffffffffffffffffffffff1681565b60066020528060005260406000206000915090508060000160009054906101000a900473ffffffffffffffffffffffffffffffffffffffff1690806001018054610a2990611e8b565b80601f0160208091040260200160405190810160405280929190818152602001828054610a5590611e8b565b8015610aa25780601f10610a7757610100808354040283529160200191610aa2565b820191906000526020600020905b815481529060010190602001808311610a8557829003601f168201915b5050505050908060020160009054906101000a900460ff16908060020160019054906101000a900460ff16905084565b600160009054906101000a900473ffffffffffffffffffffffffffffffffffffffff1673ffffffffffffffffffffffffffffffffffffffff163373ffffffffffffffffffffffffffffffffffffffff1614610b62576040517f08c379a0000000000000000000000000000000000000000000000000000000008152600401610b59906120ae565b60405180910390fd5b6004548210610ba6576040517f08c379a0000000000000000000000000000000000000000000000000000000008152600401610b9d9061211a565b60405180910390fd5b60038281548110610bba57610bb961213a565b5b906000526020600020906005020160040160009054906101000a900460ff16610c18576040517f08c379a0000000000000000000000000000000000000000000000000000000008152600401610c0f906121b5565b60405180910390fd5b6006600083815260200190815260200160002060020160009054906101000a900460ff1615610c7c576040517f08c379a0000000000000000000000000000000000000000000000000000000008152600401610c7390612221565b60405180910390fd5b600060038381548110610c9257610c9161213a565b5b906000526020600020906005020160000160009054906101000a900473ffffffffffffffffffffffffffffffffffffffff16905060405180608001604052808273ffffffffffffffffffffffffffffffffffffffff16815260200183815260200160011515815260200160006002811115610d1057610d0f611ac0565b5b8152506006600085815260200190815260200160002060008201518160000160006101000a81548173ffffffffffffffffffffffffffffffffffffffff021916908373ffffffffffffffffffffffffffffffffffffffff1602179055506020820151816001019080519060200190610d89929190611766565b5060408201518160020160006101000a81548160ff02191690831515021790555060608201518160020160016101000a81548160ff02191690836002811115610dd557610dd4611ac0565b5b02179055509050508073ffffffffffffffffffffffffffffffffffffffff16837f1b84372106d77c6daea0dda35bbc0229d10a83f58ec89909288492519368234184604051610e249190612241565b60405180910390a3505050565b60056020528060005260406000206000915090505481565b60008054906101000a900473ffffffffffffffffffffffffffffffffffffffff1681565b600160009054906101000a900473ffffffffffffffffffffffffffffffffffffffff1673ffffffffffffffffffffffffffffffffffffffff163373ffffffffffffffffffffffffffffffffffffffff1614610efd576040517f08c379a0000000000000000000000000000000000000000000000000000000008152600401610ef4906120ae565b60405180910390fd5b6004548110610f41576040517f08c379a0000000000000000000000000000000000000000000000000000000008152600401610f389061211a565b60405180910390fd5b60038181548110610f5557610f5461213a565b5b9060005260206000209060050201600080820160006101000a81549073ffffffffffffffffffffffffffffffffffffffff0219169055600182016000610f9b91906117ec565b600282016000905560038201600090556004820160006101000a81549060ff02191690555050807f81a9339e192f17a2544892f6f54b4b2c4d16184d3ac5cbcd45146fe360d753af60405160405180910390a250565b60008054906101000a900473ffffffffffffffffffffffffffffffffffffffff1673ffffffffffffffffffffffffffffffffffffffff163373ffffffffffffffffffffffffffffffffffffffff161461107f576040517f08c379a000000000000000000000000000000000000000000000000000000000815260040161107690611e3c565b60405180910390fd5b80600160006101000a81548173ffffffffffffffffffffffffffffffffffffffff021916908373ffffffffffffffffffffffffffffffffffffffff1602179055508073ffffffffffffffffffffffffffffffffffffffff167fcaac1cded5f66c118ba915f0fc60cd20a0924fcf956320b5230e70c8d5a773ca60405160405180910390a250565b6000606060008060006004548610611153576040517f08c379a000000000000000000000000000000000000000000000000000000000815260040161114a9061211a565b60405180910390fd5b6000600387815481106111695761116861213a565b5b906000526020600020906005020190508060000160009054906101000a900473ffffffffffffffffffffffffffffffffffffffff1681600101826002015483600301548460040160009054906101000a900460ff168380546111ca90611e8b565b80601f01602080910402602001604051908101604052809291908181526020018280546111f690611e8b565b80156112435780601f1061121857610100808354040283529160200191611243565b820191906000526020600020905b81548152906001019060200180831161122657829003601f168201915b50505050509350955095509550955095505091939590929450565b600160009054906101000a900473ffffffffffffffffffffffffffffffffffffffff1673ffffffffffffffffffffffffffffffffffffffff163373ffffffffffffffffffffffffffffffffffffffff16146112ee576040517f08c379a00000000000000000000000000000000000000000000000000000000081526004016112e5906120ae565b60405180910390fd5b600254341015611333576040517f08c379a000000000000000000000000000000000000000000000000000000000815260040161132a906122af565b60405180910390fd5b6000600454905060036040518060a001604052808773ffffffffffffffffffffffffffffffffffffffff16815260200186815260200185815260200184815260200160001515815250908060018154018082558091505060019003906000526020600020906005020160009091909190915060008201518160000160006101000a81548173ffffffffffffffffffffffffffffffffffffffff021916908373ffffffffffffffffffffffffffffffffffffffff1602179055506020820151816001019080519060200190611408929190611766565b50604082015181600201556060820151816003015560808201518160040160006101000a81548160ff021916908315150217905550505060046000815480929190611452906122fe565b91905055503460056000838152602001908152602001600020819055508473ffffffffffffffffffffffffffffffffffffffff167ffdc73d0cb89f717ce84a38ef3d0396e5eb5a8c3af40f3d0fc648b8571601f7f38585856040516114b993929190612347565b60405180910390a28473ffffffffffffffffffffffffffffffffffffffff16817f4d3f6d68b42e1e039d6e7323b2b8bdeaf223f453882ce17a5984f4d6aabbdb33346040516115089190611a8a565b60405180910390a35050505050565b6000606060008060006006600087815260200190815260200160002090508060000160009054906101000a900473ffffffffffffffffffffffffffffffffffffffff16816001018260020160009054906101000a900460ff168360020160019054906101000a900460ff1682805461158e90611e8b565b80601f01602080910402602001604051908101604052809291908181526020018280546115ba90611e8b565b80156116075780601f106115dc57610100808354040283529160200191611607565b820191906000526020600020905b8154815290600101906020018083116115ea57829003601f168201915b505050505092509450945094509450509193509193565b60045481565b600160009054906101000a900473ffffffffffffffffffffffffffffffffffffffff1673ffffffffffffffffffffffffffffffffffffffff163373ffffffffffffffffffffffffffffffffffffffff16146116b4576040517f08c379a00000000000000000000000000000000000000000000000000000000081526004016116ab906120ae565b60405180910390fd5b60045481106116f8576040517f08c379a00000000000000000000000000000000000000000000000000000000081526004016116ef9061211a565b60405180910390fd5b60016003828154811061170e5761170d61213a565b5b906000526020600020906005020160040160006101000a81548160ff021916908315150217905550807fec59d58c5415ce6be7c425872bec7e9c1482eaf1fb023220ed20b45b5d1c0de060405160405180910390a250565b82805461177290611e8b565b90600052602060002090601f01602090048101928261179457600085556117db565b82601f106117ad57805160ff19168380011785556117db565b828001600101855582156117db579182015b828111156117da5782518255916020019190600101906117bf565b5b5090506117e8919061182c565b5090565b5080546117f890611e8b565b6000825580601f1061180a5750611829565b601f016020900490600052602060002090810190611828919061182c565b5b50565b5b8082111561184557600081600090555060010161182d565b5090565b6000604051905090565b600080fd5b600080fd5b6000819050919050565b6118708161185d565b811461187b57600080fd5b50565b60008135905061188d81611867565b92915050565b6000602082840312156118a9576118a8611853565b5b60006118b78482850161187e565b91505092915050565b600073ffffffffffffffffffffffffffffffffffffffff82169050919050565b60006118eb826118c0565b9050919050565b6118fb816118e0565b82525050565b600081519050919050565b600082825260208201905092915050565b60005b8381101561193b578082015181840152602081019050611920565b8381111561194a576000848401525b50505050565b6000601f19601f8301169050919050565b600061196c82611901565b611976818561190c565b935061198681856020860161191d565b61198f81611950565b840191505092915050565b6119a38161185d565b82525050565b60008115159050919050565b6119be816119a9565b82525050565b600060a0820190506119d960008301886118f2565b81810360208301526119eb8187611961565b90506119fa604083018661199a565b611a07606083018561199a565b611a1460808301846119b5565b9695505050505050565b611a27816119a9565b8114611a3257600080fd5b50565b600081359050611a4481611a1e565b92915050565b60008060408385031215611a6157611a60611853565b5b6000611a6f8582860161187e565b9250506020611a8085828601611a35565b9150509250929050565b6000602082019050611a9f600083018461199a565b92915050565b6000602082019050611aba60008301846118f2565b92915050565b7f4e487b7100000000000000000000000000000000000000000000000000000000600052602160045260246000fd5b60038110611b0057611aff611ac0565b5b50565b6000819050611b1182611aef565b919050565b6000611b2182611b03565b9050919050565b611b3181611b16565b82525050565b6000608082019050611b4c60008301876118f2565b8181036020830152611b5e8186611961565b9050611b6d60408301856119b5565b611b7a6060830184611b28565b95945050505050565b600080fd5b600080fd5b7f4e487b7100000000000000000000000000000000000000000000000000000000600052604160045260246000fd5b611bc582611950565b810181811067ffffffffffffffff82111715611be457611be3611b8d565b5b80604052505050565b6000611bf7611849565b9050611c038282611bbc565b919050565b600067ffffffffffffffff821115611c2357611c22611b8d565b5b611c2c82611950565b9050602081019050919050565b82818337600083830152505050565b6000611c5b611c5684611c08565b611bed565b905082815260208101848484011115611c7757611c76611b88565b5b611c82848285611c39565b509392505050565b600082601f830112611c9f57611c9e611b83565b5b8135611caf848260208601611c48565b91505092915050565b60008060408385031215611ccf57611cce611853565b5b6000611cdd8582860161187e565b925050602083013567ffffffffffffffff811115611cfe57611cfd611858565b5b611d0a85828601611c8a565b9150509250929050565b611d1d816118e0565b8114611d2857600080fd5b50565b600081359050611d3a81611d14565b92915050565b600060208284031215611d5657611d55611853565b5b6000611d6484828501611d2b565b91505092915050565b60008060008060808587031215611d8757611d86611853565b5b6000611d9587828801611d2b565b945050602085013567ffffffffffffffff811115611db657611db5611858565b5b611dc287828801611c8a565b9350506040611dd38782880161187e565b9250506060611de48782880161187e565b91505092959194509250565b7f4e6f74206f776e65720000000000000000000000000000000000000000000000600082015250565b6000611e2660098361190c565b9150611e3182611df0565b602082019050919050565b60006020820190508181036000830152611e5581611e19565b9050919050565b7f4e487b7100000000000000000000000000000000000000000000000000000000600052602260045260246000fd5b60006002820490506001821680611ea357607f821691505b60208210811415611eb757611eb6611e5c565b5b50919050565b7f4e6f206163746976652064697370757465000000000000000000000000000000600082015250565b6000611ef360118361190c565b9150611efe82611ebd565b602082019050919050565b60006020820190508181036000830152611f2281611ee6565b9050919050565b6000602082019050611f3e60008301846119b5565b92915050565b7f4e6f7468696e6720746f20776974686472617700000000000000000000000000600082015250565b6000611f7a60138361190c565b9150611f8582611f44565b602082019050919050565b60006020820190508181036000830152611fa981611f6d565b9050919050565b600081905092915050565b50565b6000611fcb600083611fb0565b9150611fd682611fbb565b600082019050919050565b6000611fec82611fbe565b9150819050919050565b7f5769746864726177206661696c65640000000000000000000000000000000000600082015250565b600061202c600f8361190c565b915061203782611ff6565b602082019050919050565b6000602082019050818103600083015261205b8161201f565b9050919050565b7f4e6f7420617574686f72697a65643a206261636b656e64206f6e6c7900000000600082015250565b6000612098601c8361190c565b91506120a382612062565b602082019050919050565b600060208201905081810360008301526120c78161208b565b9050919050565b7f496e76616c6964207265736572766174696f6e20494400000000000000000000600082015250565b600061210460168361190c565b915061210f826120ce565b602082019050919050565b60006020820190508181036000830152612133816120f7565b9050919050565b7f4e487b7100000000000000000000000000000000000000000000000000000000600052603260045260246000fd5b7f5265736572766174696f6e206e6f7420636f6e6669726d656400000000000000600082015250565b600061219f60198361190c565b91506121aa82612169565b602082019050919050565b600060208201905081810360008301526121ce81612192565b9050919050565b7f4469737075746520616c72656164792072616973656400000000000000000000600082015250565b600061220b60168361190c565b9150612216826121d5565b602082019050919050565b6000602082019050818103600083015261223a816121fe565b9050919050565b6000602082019050818103600083015261225b8184611961565b905092915050565b7f496e73756666696369656e74207061796d656e74000000000000000000000000600082015250565b600061229960148361190c565b91506122a482612263565b602082019050919050565b600060208201905081810360008301526122c88161228c565b9050919050565b7f4e487b7100000000000000000000000000000000000000000000000000000000600052601160045260246000fd5b60006123098261185d565b91507fffffffffffffffffffffffffffffffffffffffffffffffffffffffffffffffff82141561233c5761233b6122cf565b5b600182019050919050565b600060608201905081810360008301526123618186611961565b9050612370602083018561199a565b61237d604083018461199a565b94935050505056fea264697066735822122071fe952e77e8ec20416034e25cc7c20724cde578ea370bcffaa546f1a3431b2e64736f6c63430008090033",
  "linkReferences": {},
  "deployedLinkReferences": {}
}