{
  "_format": "hh-sol-artifact-1",
  "contractName": "CarRental",
  "sourceName": "contracts/CarRental.sol",
  "abi": [
    {
      "inputs": [
        {
          "internalType": "address",
          "name": "_authorizedBackend",
          "type": "address"
        }
      ],
      "stateMutability": "nonpayable",
      "type": "constructor"
    },
    {
      "anonymous": false,
      "inputs": [
        {
          "indexed": true,
          "internalType": "address",
          "name": "backend",
          "type": "address"
        }
      ],
      "name": "BackendAuthorized",
      "type": "event"
    },
    {
      "anonymous": false,
      "inputs": [
        {
          "indexed": true,
          "internalType": "uint256",
          "name": "reservationId",
          "type": "uint256"
        },
        {
          "indexed": true,
          "internalType": "address",
          "name": "renter",
          "type": "address"
        },
        {
          "indexed": false,
          "internalType": "string",
          "name": "carType",
          "type": "string"
        },
        {
          "indexed": false,
          "internalType": "uint256",
          "name": "pickUpDate",
          "type": "uint256"
        },
        {
          "indexed": false,
          "internalType": "uint256",
          "name": "dropOffDate",
          "type": "uint256"
        }
      ],
      "name": "CarBooked",
      "type": "event"
    },
    {
      "anonymous": false,
      "inputs": [
        {
          "indexed": true,
          "internalType": "uint256",
          "name": "reservationId",
          "type": "uint256"
        },
        {
          "indexed": true,
          "internalType": "address",
          "name": "renter",
          "type": "address"
        },
        {
          "indexed": false,
          "internalType": "string",
          "name": "reason",
          "type": "string"
        }
      ],
      "name": "DisputeRaised",
      "type": "event"
    },
    {
      "anonymous": false,
      "inputs": [
        {
          "indexed": true,
          "internalType": "uint256",
          "name": "reservationId",
          "type": "uint256"
        },
        {
          "indexed": true,
          "internalType": "address",
          "name": "resolver",
          "type": "address"
        },
        {
          "indexed": false,
          "internalType": "bool",
          "name": "refunded",
          "type": "bool"
        }
      ],
      "name": "DisputeResolved",
      "type": "event"
    },
    {
      "anonymous": false,
      "inputs": [
        {
          "indexed": true,
          "internalType": "address",
          "name": "owner",
          "type": "address"
        },
        {
          "indexed": false,
          "internalType": "uint256",
          "name": "amount",
          "type": "uint256"
        }
      ],
      "name": "FundsWithdrawn",
      "type": "event"
    },
    {
      "anonymous": false,
      "inputs": [
        {
          "indexed": true,
          "internalType": "uint256",
          "name": "reservationId",
          "type": "uint256"
        },
        {
          "indexed": true,
          "internalType": "address",
          "name": "renter",
          "type": "address"
        },
        {
          "indexed": false,
          "internalType": "uint256",
          "name": "amount",
          "type": "uint256"
        }
      ],
      "name": "PaymentReceived",
      "type": "event"
    },
    {
      "anonymous": false,
      "inputs": [
        {
          "indexed": true,
          "internalType": "uint256",
          "name": "reservationId",
          "type": "uint256"
        },
        {
          "indexed": true,
          "internalType": "address",
          "name": "renter",
          "type": "address"
        },
        {
          "indexed": false,
          "internalType": "uint256",
          "name": "amount",
          "type": "uint256"
        },
        {
          "indexed": false,
          "internalType": "string",
          "name": "reason",
          "type": "string"
        }
      ],
      "name": "RefundIssued",
      "type": "event"
    },
    {
      "anonymous": false,
      "inputs": [
        {
          "indexed": false,
          "internalType": "uint256",
          "name": "newFee",
          "type": "uint256"
        }
      ],
      "name": "RentalFeeUpdated",
      "type": "event"
    },
    {
      "anonymous": false,
      "inputs": [
        {
          "indexed": true,
          "internalType": "uint256",
          "name": "reservationId",
          "type": "uint256"
        }
      ],
      "name": "ReservationCanceled",
      "type": "event"
    },
    {
      "anonymous": false,
      "inputs": [
        {
          "indexed": true,
          "internalType": "uint256",
          "name": "reservationId",
          "type": "uint256"
        }
      ],
      "name": "ReservationConfirmed",
      "type": "event"
    },
    {
      "inputs": [],
      "name": "authorizedBackend",
      "outputs": [
        {
          "internalType": "address",
          "name": "",
          "type": "address"
        }
      ],
      "stateMutability": "view",
      "type": "function"
    },
    {
      "inputs": [
        {
          "internalType": "address",
          "name": "_renter",
          "type": "address"
        },
        {
          "internalType": "string",
          "name": "_carType",
          "type": "string"
        },
        {
          "internalType": "uint256",
          "name": "_pickUpDate",
          "type": "uint256"
        },
        {
          "internalType": "uint256",
          "name": "_dropOffDate",
          "type": "uint256"
        }
      ],
      "name": "bookCar",
      "outputs": [],
      "stateMutability": "payable",
      "type": "function"
    },
    {
      "inputs": [
        {
          "internalType": "uint256",
          "name": "_reservationId",
          "type": "uint256"
        }
      ],
      "name": "cancelReservation",
      "outputs": [],
      "stateMutability": "nonpayable",
      "type": "function"
    },
    {
      "inputs": [
        {
          "internalType": "uint256",
          "name": "_reservationId",
          "type": "uint256"
        }
      ],
      "name": "confirmReservation",
      "outputs": [],
      "stateMutability": "nonpayable",
      "type": "function"
    },
    {
      "inputs": [
        {
          "internalType": "uint256",
          "name": "",
          "type": "uint256"
        }
      ],
      "name": "disputes",
      "outputs": [
        {
          "internalType": "address",
          "name": "renter",
          "type": "address"
        },
        {
          "internalType": "string",
          "name": "reason",
          "type": "string"
        },
        {
          "internalType": "bool",
          "name": "raised",
          "type": "bool"
        },
        {
          "internalType": "enum CarRental.DisputeOutcome",
          "name": "outcome",
          "type": "uint8"
        }
      ],
      "stateMutability": "view",
      "type": "function"
    },
    {
      "inputs": [
        {
          "internalType": "uint256",
          "name": "_reservationId",
          "type": "uint256"
        }
      ],
      "name": "getDispute",
      "outputs": [
        {
          "internalType": "address",
          "name": "renter",
          "type": "address"
        },
        {
          "internalType": "string",
          "name": "reason",
          "type": "string"
        },
        {
          "internalType": "bool",
          "name": "raised",
          "type": "bool"
        },
        {
          "internalType": "enum CarRental.DisputeOutcome",
          "name": "outcome",
          "type": "uint8"
        }
      ],
      "stateMutability": "view",
      "type": "function"
    },
    {
      "inputs": [
        {
          "internalType": "address",
          "name": "_renter",
          "type": "address"
        }
      ],
      "name": "getRenterReservations",
      "outputs": [
        {
          "internalType": "uint256[]",
          "name": "",
          "type": "uint256[]"
        }
      ],
      "stateMutability": "view",
      "type": "function"
    },
    {
      "inputs": [
        {
          "internalType": "uint256",
          "name": "_reservationId",
          "type": "uint256"
        }
      ],
      "name": "getReservation",
      "outputs": [
        {
          "internalType": "address",
          "name": "renter",
          "type": "address"
        },
        {
          "internalType": "string",
          "name": "carType",
          "type": "string"
        },
        {
          "internalType": "uint256",
          "name": "pickUpDate",
          "type": "uint256"
        },
        {
          "internalType": "uint256",
          "name": "dropOffDate",
          "type": "uint256"
        },
        {
          "internalType": "bool",
          "name": "confirmed",
          "type": "bool"
        }
      ],
      "stateMutability": "view",
      "type": "function"
    },
    {
      "inputs": [],
      "name": "getTotalRentalDays",
      "outputs": [
        {
          "internalType": "uint256",
          "name": "",
          "type": "uint256"
        }
      ],
      "stateMutability": "view",
      "type": "function"
    },
    {
      "inputs": [],
      "name": "owner",
      "outputs": [
        {
          "internalType": "address",
          "name": "",
          "type": "address"
        }
      ],
      "stateMutability": "view",
      "type": "function"
    },
    {
      "inputs": [
        {
          "internalType": "uint256",
          "name": "_reservationId",
          "type": "uint256"
        },
        {
          "internalType": "string",
          "name": "_reason",
          "type": "string"
        }
      ],
      "name": "raiseDispute",
      "outputs": [],
      "stateMutability": "nonpayable",
      "type": "function"
    },
    {
      "inputs": [],
      "name": "rentalFee",
      "outputs": [
        {
          "internalType": "uint256",
          "name": "",
          "type": "uint256"
        }
      ],
      "stateMutability": "view",
      "type": "function"
    },
    {
      "inputs": [],
      "name": "reservationCount",
      "outputs": [
        {
          "internalType": "uint256",
          "name": "",
          "type": "uint256"
        }
      ],
      "stateMutability": "view",
      "type": "function"
    },
    {
      "inputs": [
        {
          "internalType": "uint256",
          "name": "",
          "type": "uint256"
        }
      ],
      "name": "reservationPayments",
      "outputs": [
        {
          "internalType": "uint256",
          "name": "",
          "type": "uint256"
        }
      ],
      "stateMutability": "view",
      "type": "function"
    },
    {
      "inputs": [
        {
          "internalType": "uint256",
          "name": "",
          "type": "uint256"
        }
      ],
      "name": "reservations",
      "outputs": [
        {
          "internalType": "address",
          "name": "renter",
          "type": "address"
        },
        {
          "internalType": "string",
          "name": "carType",
          "type": "string"
        },
        {
          "internalType": "uint256",
          "name": "pickUpDate",
          "type": "uint256"
        },
        {
          "internalType": "uint256",
          "name": "dropOffDate",
          "type": "uint256"
        },
        {
          "internalType": "bool",
          "name": "confirmed",
          "type": "bool"
        }
      ],
      "stateMutability": "view",
      "type": "function"
    },
    {
      "inputs": [
        {
          "internalType": "uint256",
          "name": "_reservationId",
          "type": "uint256"
        },
        {
          "internalType": "bool",
          "name": "_refund",
          "type": "bool"
        }
      ],
      "name": "resolveDispute",
      "outputs": [],
      "stateMutability": "nonpayable",
      "type": "function"
    },
    {
      "inputs": [
        {
          "internalType": "address",
          "name": "_backend",
          "type": "address"
        }
      ],
      "name": "setAuthorizedBackend",
      "outputs": [],
      "stateMutability": "nonpayable",
      "type": "function"
    },
    {
      "inputs": [
        {
          "internalType": "uint256",
          "name": "_fee",
          "type": "uint256"
        }
      ],
      "name": "setRentalFee",
      "outputs": [],
      "stateMutability": "nonpayable",
      "type": "function"
    },
    {
      "inputs": [],
      "name": "withdraw",
      "outputs": [],
      "stateMutability": "nonpayable",
      "type": "function"
    }
  ],
  "bytecode": "0x60806040523480156200001157600080fd5b50604051620030c0380380620030c0833981810160405281019062000037919062000174565b336000806101000a81548173ffffffffffffffffffffffffffffffffffffffff021916908373ffffffffffffffffffffffffffffffffffffffff16021790555080600160006101000a81548173ffffffffffffffffffffffffffffffffffffffff021916908373ffffffffffffffffffffffffffffffffffffffff16021790555060006004819055508073ffffffffffffffffffffffffffffffffffffffff167fcaac1cded5f66c118ba915f0fc60cd20a0924fcf956320b5230e70c8d5a773ca60405160405180910390a250620001a6565b600080fd5b600073ffffffffffffffffffffffffffffffffffffffff82169050919050565b60006200013c826200010f565b9050919050565b6200014e816200012f565b81146200015a57600080fd5b50565b6000815190506200016e8162000143565b92915050565b6000602082840312156200018d576200018c6200010a565b5b60006200019d848285016200015d565b91505092915050565b612f0a80620001b66000396000f3fe6080604052600436106101135760003560e01c80638da5cb5b116100a0578063da61a8af11610064578063da61a8af146103a7578063e10f54a1146103c3578063e3a96cbd14610400578063e84f756e14610440578063ecc2ecdd1461046b57610113565b80638da5cb5b146102be578063ae5e6cf4146102e9578063afcba24714610312578063b0f8c5451461033b578063d57763c31461036657610113565b80634876956b116100e75780634876956b146101c257806349430bcf146101ed578063564a565d146102185780635aef573c1461025857806362f177091461028157610113565b806286d90414610118578063067cf8321461014157806334b25ee2146101825780633ccfd60b146101ab575b600080fd5b34801561012457600080fd5b5061013f600480360381019061013a9190612019565b610494565b005b34801561014d57600080fd5b5061016860048036038101906101639190612019565b610563565b60405161017995949392919061214a565b60405180910390f35b34801561018e57600080fd5b506101a960048036038101906101a491906121d0565b61065e565b005b3480156101b757600080fd5b506101c06109d8565b005b3480156101ce57600080fd5b506101d7610bed565b6040516101e49190612210565b60405180910390f35b3480156101f957600080fd5b50610202610bf3565b60405161020f919061222b565b60405180910390f35b34801561022457600080fd5b5061023f600480360381019061023a9190612019565b610c19565b60405161024f94939291906122bd565b60405180910390f35b34801561026457600080fd5b5061027f600480360381019061027a919061243e565b610d0b565b005b34801561028d57600080fd5b506102a860048036038101906102a39190612019565b61106a565b6040516102b59190612210565b60405180910390f35b3480156102ca57600080fd5b506102d3611082565b6040516102e0919061222b565b60405180910390f35b3480156102f557600080fd5b50610310600480360381019061030b9190612019565b6110a6565b005b34801561031e57600080fd5b50610339600480360381019061033491906124c6565b611490565b005b34801561034757600080fd5b506103506115a5565b60405161035d9190612210565b60405180910390f35b34801561037257600080fd5b5061038d60048036038101906103889190612019565b6116bf565b60405161039e95949392919061214a565b60405180910390f35b6103c160048036038101906103bc91906124f3565b611817565b005b3480156103cf57600080fd5b506103ea60048036038101906103e591906124c6565b611ad1565b6040516103f79190612634565b60405180910390f35b34801561040c57600080fd5b5061042760048036038101906104229190612019565b611c9d565b60405161043794939291906122bd565b60405180910390f35b34801561044c57600080fd5b50610455611da4565b6040516104629190612210565b60405180910390f35b34801561047757600080fd5b50610492600480360381019061048d9190612019565b611daa565b005b60008054906101000a900473ffffffffffffffffffffffffffffffffffffffff1673ffffffffffffffffffffffffffffffffffffffff163373ffffffffffffffffffffffffffffffffffffffff1614610522576040517f08c379a0000000000000000000000000000000000000000000000000000000008152600401610519906126a2565b60405180910390fd5b806002819055507f320d2aa8faf14b9d8b3ffc8a26aa832110b7eb5d163bd13d83b6fe8212635bac816040516105589190612210565b60405180910390a150565b6003818154811061057357600080fd5b90600052602060002090600502016000915090508060000160009054906101000a900473ffffffffffffffffffffffffffffffffffffffff16908060010180546105bc906126f1565b80601f01602080910402602001604051908101604052809291908181526020018280546105e8906126f1565b80156106355780601f1061060a57610100808354040283529160200191610635565b820191906000526020600020905b81548152906001019060200180831161061857829003601f168201915b5050505050908060020154908060030154908060040160009054906101000a900460ff16905085565b60008054906101000a900473ffffffffffffffffffffffffffffffffffffffff1673ffffffffffffffffffffffffffffffffffffffff163373ffffffffffffffffffffffffffffffffffffffff16146106ec576040517f08c379a00000000000000000000000000000000000000000000000000000000081526004016106e3906126a2565b60405180910390fd5b6006600083815260200190815260200160002060020160009054906101000a900460ff1661074f576040517f08c379a00000000000000000000000000000000000000000000000000000000081526004016107469061276f565b60405180910390fd5b60006006600084815260200190815260200160002060000160009054906101000a900473ffffffffffffffffffffffffffffffffffffffff16905060006005600085815260200190815260200160002054905060006006600086815260200190815260200160002060020160006101000a81548160ff021916908315150217905550826107dd5760026107e0565b60015b6006600086815260200190815260200160002060020160016101000a81548160ff0219169083600281111561081857610817612246565b5b021790555082156108805760008111610866576040517f08c379a000000000000000000000000000000000000000000000000000000000815260040161085d906127db565b60405180910390fd5b600060056000868152602001908152602001600020819055505b3373ffffffffffffffffffffffffffffffffffffffff16847f8fdd4548a8481406b6e29c0d6f25e27cd72502f79f4adf409468502e7920dabc856040516108c791906127fb565b60405180910390a382156109d25760008273ffffffffffffffffffffffffffffffffffffffff16826040516108fb90612847565b60006040518083038185875af1925050503d8060008114610938576040519150601f19603f3d011682016040523d82523d6000602084013e61093d565b606091505b5050905080610981576040517f08c379a0000000000000000000000000000000000000000000000000000000008152600401610978906128a8565b60405180910390fd5b8273ffffffffffffffffffffffffffffffffffffffff16857f551522b0d60c594ede0c67244f83dcccaa437812ec12cd3010b0ad2457848d94846040516109c8919061293a565b60405180910390a3505b50505050565b60008054906101000a900473ffffffffffffffffffffffffffffffffffffffff1673ffffffffffffffffffffffffffffffffffffffff163373ffffffffffffffffffffffffffffffffffffffff1614610a66576040517f08c379a0000000000000000000000000000000000000000000000000000000008152600401610a5d906126a2565b60405180910390fd5b600047905060008111610aae576040517f08c379a0000000000000000000000000000000000000000000000000000000008152600401610aa5906129b4565b60405180910390fd5b60008060009054906101000a900473ffffffffffffffffffffffffffffffffffffffff1673ffffffffffffffffffffffffffffffffffffffff1682604051610af590612847565b60006040518083038185875af1925050503d8060008114610b32576040519150601f19603f3d011682016040523d82523d6000602084013e610b37565b606091505b5050905080610b7b576040517f08c379a0000000000000000000000000000000000000000000000000000000008152600401610b7290612a20565b60405180910390fd5b60008054906101000a900473ffffffffffffffffffffffffffffffffffffffff1673ffffffffffffffffffffffffffffffffffffffff167feaff4b37086828766ad3268786972c0cd24259d4c87a80f9d3963a3c3d999b0d83604051610be19190612210565b60405180910390a25050565b60025481565b600160009054906101000a900473ffffffffffffffffffffffffffffffffffffffff1681565b60066020528060005260406000206000915090508060000160009054906101000a900473ffffffffffffffffffffffffffffffffffffffff1690806001018054610c62906126f1565b80601f0160208091040260200160405190810160405280929190818152602001828054610c8e906126f1565b8015610cdb5780601f10610cb057610100808354040283529160200191610cdb565b820191906000526020600020905b815481529060010190602001808311610cbe57829003601f168201915b5050505050908060020160009054906101000a900460ff16908060020160019054906101000a900460ff16905084565b600160009054906101000a900473ffffffffffffffffffffffffffffffffffffffff1673ffffffffffffffffffffffffffffffffffffffff163373ffffffffffffffffffffffffffffffffffffffff1614610d9b576040517f08c379a0000000000000000000000000000000000000000000000000000000008152600401610d9290612a8c565b60405180910390fd5b6004548210610ddf576040517f08c379a0000000000000000000000000000000000000000000000000000000008152600401610dd690612af8565b60405180910390fd5b60038281548110610df357610df2612b18565b5b906000526020600020906005020160040160009054906101000a900460ff16610e51576040517f08c379a0000000000000000000000000000000000000000000000000000000008152600401610e4890612b93565b60405180910390fd5b6006600083815260200190815260200160002060020160009054906101000a900460ff1615610eb5576040517f08c379a0000000000000000000000000000000000000000000000000000000008152600401610eac90612bff565b60405180910390fd5b600060038381548110610ecb57610eca612b18565b5b906000526020600020906005020160000160009054906101000a900473ffffffffffffffffffffffffffffffffffffffff16905060405180608001604052808273ffffffffffffffffffffffffffffffffffffffff16815260200183815260200160011515815260200160006002811115610f4957610f48612246565b5b8152506006600085815260200190815260200160002060008201518160000160006101000a81548173ffffffffffffffffffffffffffffffffffffffff021916908373ffffffffffffffffffffffffffffffffffffffff1602179055506020820151816001019080519060200190610fc2929190611eec565b5060408201518160020160006101000a81548160ff02191690831515021790555060608201518160020160016101000a81548160ff0219169083600281111561100e5761100d612246565b5b02179055509050508073ffffffffffffffffffffffffffffffffffffffff16837f1b84372106d77c6daea0dda35bbc0229d10a83f58ec8990928849251936823418460405161105d9190612c1f565b60405180910390a3505050565b60056020528060005260406000206000915090505481565b60008054906101000a900473ffffffffffffffffffffffffffffffffffffffff1681565b600160009054906101000a900473ffffffffffffffffffffffffffffffffffffffff1673ffffffffffffffffffffffffffffffffffffffff163373ffffffffffffffffffffffffffffffffffffffff1614611136576040517f08c379a000000000000000000000000000000000000000000000000000000000815260040161112d90612a8c565b60405180910390fd5b600454811061117a576040517f08c379a000000000000000000000000000000000000000000000000000000000815260040161117190612af8565b60405180910390fd5b6000600382815481106111905761118f612b18565b5b906000526020600020906005020160000160009054906101000a900473ffffffffffffffffffffffffffffffffffffffff1690506000600383815481106111da576111d9612b18565b5b90600052602060002090600502016002015490506000600560008581526020019081526020016000205490506003848154811061121a57611219612b18565b5b9060005260206000209060050201600080820160006101000a81549073ffffffffffffffffffffffffffffffffffffffff02191690556001820160006112609190611f72565b600282016000905560038201600090556004820160006101000a81549060ff0219169055505060006005600086815260200190815260200160002081905550837f81a9339e192f17a2544892f6f54b4b2c4d16184d3ac5cbcd45146fe360d753af60405160405180910390a26000811180156113095750600073ffffffffffffffffffffffffffffffffffffffff168373ffffffffffffffffffffffffffffffffffffffff1614155b1561148a57600060608342101561137f576202a300428561132a9190612c70565b111561135357829150604051806060016040528060298152602001612eac60299139905061137e565b6002836113609190612cd3565b91506040518060600160405280602e8152602001612e7e602e913990505b5b60008211156114875760008573ffffffffffffffffffffffffffffffffffffffff16836040516113ae90612847565b60006040518083038185875af1925050503d80600081146113eb576040519150601f19603f3d011682016040523d82523d6000602084013e6113f0565b606091505b5050905080611434576040517f08c379a000000000000000000000000000000000000000000000000000000000815260040161142b906128a8565b60405180910390fd5b8573ffffffffffffffffffffffffffffffffffffffff16877f551522b0d60c594ede0c67244f83dcccaa437812ec12cd3010b0ad2457848d94858560405161147d929190612d04565b60405180910390a3505b50505b50505050565b60008054906101000a900473ffffffffffffffffffffffffffffffffffffffff1673ffffffffffffffffffffffffffffffffffffffff163373ffffffffffffffffffffffffffffffffffffffff161461151e576040517f08c379a0000000000000000000000000000000000000000000000000000000008152600401611515906126a2565b60405180910390fd5b80600160006101000a81548173ffffffffffffffffffffffffffffffffffffffff021916908373ffffffffffffffffffffffffffffffffffffffff1602179055508073ffffffffffffffffffffffffffffffffffffffff167fcaac1cded5f66c118ba915f0fc60cd20a0924fcf956320b5230e70c8d5a773ca60405160405180910390a250565b6000806000905060005b6004548110156116b757600073ffffffffffffffffffffffffffffffffffffffff16600382815481106115e5576115e4612b18565b5b906000526020600020906005020160000160009054906101000a900473ffffffffffffffffffffffffffffffffffffffff1673ffffffffffffffffffffffffffffffffffffffff16146116a457620151806003828154811061164a57611649612b18565b5b906000526020600020906005020160020154600383815481106116705761166f612b18565b5b90600052602060002090600502016003015461168c9190612c70565b6116969190612cd3565b826116a19190612d34565b91505b80806116af90612d8a565b9150506115af565b508091505090565b600060606000806000600454861061170c576040517f08c379a000000000000000000000000000000000000000000000000000000000815260040161170390612af8565b60405180910390fd5b60006003878154811061172257611721612b18565b5b906000526020600020906005020190508060000160009054906101000a900473ffffffffffffffffffffffffffffffffffffffff1681600101826002015483600301548460040160009054906101000a900460ff16838054611783906126f1565b80601f01602080910402602001604051908101604052809291908181526020018280546117af906126f1565b80156117fc5780601f106117d1576101008083540402835291602001916117fc565b820191906000526020600020905b8154815290600101906020018083116117df57829003601f168201915b50505050509350955095509550955095505091939590929450565b600160009054906101000a900473ffffffffffffffffffffffffffffffffffffffff1673ffffffffffffffffffffffffffffffffffffffff163373ffffffffffffffffffffffffffffffffffffffff16146118a7576040517f08c379a000000000000000000000000000000000000000000000000000000000815260040161189e90612a8c565b60405180910390fd5b6002543410156118ec576040517f08c379a00000000000000000000000000000000000000000000000000000000081526004016118e390612e1f565b60405180910390fd5b6000600454905060036040518060a001604052808773ffffffffffffffffffffffffffffffffffffffff16815260200186815260200185815260200184815260200160001515815250908060018154018082558091505060019003906000526020600020906005020160009091909190915060008201518160000160006101000a81548173ffffffffffffffffffffffffffffffffffffffff021916908373ffffffffffffffffffffffffffffffffffffffff16021790555060208201518160010190805190602001906119c1929190611eec565b50604082015181600201556060820151816003015560808201518160040160006101000a81548160ff021916908315150217905550505060046000815480929190611a0b90612d8a565b91905055503460056000838152602001908152602001600020819055508473ffffffffffffffffffffffffffffffffffffffff16817faf50cf0078248d114ff3c6fc59a303218f1f5f0320f35a4bf61e0e8b5891df8a868686604051611a7393929190612e3f565b60405180910390a38473ffffffffffffffffffffffffffffffffffffffff16817f4d3f6d68b42e1e039d6e7323b2b8bdeaf223f453882ce17a5984f4d6aabbdb3334604051611ac29190612210565b60405180910390a35050505050565b6060600060045467ffffffffffffffff811115611af157611af0612313565b5b604051908082528060200260200182016040528015611b1f5781602001602082028036833780820191505090505b5090506000805b600454811015611beb578473ffffffffffffffffffffffffffffffffffffffff1660038281548110611b5b57611b5a612b18565b5b906000526020600020906005020160000160009054906101000a900473ffffffffffffffffffffffffffffffffffffffff1673ffffffffffffffffffffffffffffffffffffffff161415611bd85780838381518110611bbd57611bbc612b18565b5b6020026020010181815250508180611bd490612d8a565b9250505b8080611be390612d8a565b915050611b26565b5060008167ffffffffffffffff811115611c0857611c07612313565b5b604051908082528060200260200182016040528015611c365781602001602082028036833780820191505090505b50905060005b82811015611c9157838181518110611c5757611c56612b18565b5b6020026020010151828281518110611c7257611c71612b18565b5b6020026020010181815250508080611c8990612d8a565b915050611c3c565b50809350505050919050565b6000606060008060006006600087815260200190815260200160002090508060000160009054906101000a900473ffffffffffffffffffffffffffffffffffffffff16816001018260020160009054906101000a900460ff168360020160019054906101000a900460ff16828054611d14906126f1565b80601f0160208091040260200160405190810160405280929190818152602001828054611d40906126f1565b8015611d8d5780601f10611d6257610100808354040283529160200191611d8d565b820191906000526020600020905b815481529060010190602001808311611d7057829003601f168201915b505050505092509450945094509450509193509193565b60045481565b600160009054906101000a900473ffffffffffffffffffffffffffffffffffffffff1673ffffffffffffffffffffffffffffffffffffffff163373ffffffffffffffffffffffffffffffffffffffff1614611e3a576040517f08c379a0000000000000000000000000000000000000000000000000000000008152600401611e3190612a8c565b60405180910390fd5b6004548110611e7e576040517f08c379a0000000000000000000000000000000000000000000000000000000008152600401611e7590612af8565b60405180910390fd5b600160038281548110611e9457611e93612b18565b5b906000526020600020906005020160040160006101000a81548160ff021916908315150217905550807fec59d58c5415ce6be7c425872bec7e9c1482eaf1fb023220ed20b45b5d1c0de060405160405180910390a250565b828054611ef8906126f1565b90600052602060002090601f016020900481019282611f1a5760008555611f61565b82601f10611f3357805160ff1916838001178555611f61565b82800160010185558215611f61579182015b82811115611f60578251825591602001919060010190611f45565b5b509050611f6e9190611fb2565b5090565b508054611f7e906126f1565b6000825580601f10611f905750611faf565b601f016020900490600052602060002090810190611fae9190611fb2565b5b50565b5b80821115611fcb576000816000905550600101611fb3565b5090565b6000604051905090565b600080fd5b600080fd5b6000819050919050565b611ff681611fe3565b811461200157600080fd5b50565b60008135905061201381611fed565b92915050565b60006020828403121561202f5761202e611fd9565b5b600061203d84828501612004565b91505092915050565b600073ffffffffffffffffffffffffffffffffffffffff82169050919050565b600061207182612046565b9050919050565b61208181612066565b82525050565b600081519050919050565b600082825260208201905092915050565b60005b838110156120c15780820151818401526020810190506120a6565b838111156120d0576000848401525b50505050565b6000601f19601f8301169050919050565b60006120f282612087565b6120fc8185612092565b935061210c8185602086016120a3565b612115816120d6565b840191505092915050565b61212981611fe3565b82525050565b60008115159050919050565b6121448161212f565b82525050565b600060a08201905061215f6000830188612078565b818103602083015261217181876120e7565b90506121806040830186612120565b61218d6060830185612120565b61219a608083018461213b565b9695505050505050565b6121ad8161212f565b81146121b857600080fd5b50565b6000813590506121ca816121a4565b92915050565b600080604083850312156121e7576121e6611fd9565b5b60006121f585828601612004565b9250506020612206858286016121bb565b9150509250929050565b60006020820190506122256000830184612120565b92915050565b60006020820190506122406000830184612078565b92915050565b7f4e487b7100000000000000000000000000000000000000000000000000000000600052602160045260246000fd5b6003811061228657612285612246565b5b50565b600081905061229782612275565b919050565b60006122a782612289565b9050919050565b6122b78161229c565b82525050565b60006080820190506122d26000830187612078565b81810360208301526122e481866120e7565b90506122f3604083018561213b565b61230060608301846122ae565b95945050505050565b600080fd5b600080fd5b7f4e487b7100000000000000000000000000000000000000000000000000000000600052604160045260246000fd5b61234b826120d6565b810181811067ffffffffffffffff8211171561236a57612369612313565b5b80604052505050565b600061237d611fcf565b90506123898282612342565b919050565b600067ffffffffffffffff8211156123a9576123a8612313565b5b6123b2826120d6565b9050602081019050919050565b82818337600083830152505050565b60006123e16123dc8461238e565b612373565b9050828152602081018484840111156123fd576123fc61230e565b5b6124088482856123bf565b509392505050565b600082601f83011261242557612424612309565b5b81356124358482602086016123ce565b91505092915050565b6000806040838503121561245557612454611fd9565b5b600061246385828601612004565b925050602083013567ffffffffffffffff81111561248457612483611fde565b5b61249085828601612410565b9150509250929050565b6124a381612066565b81146124ae57600080fd5b50565b6000813590506124c08161249a565b92915050565b6000602082840312156124dc576124db611fd9565b5b60006124ea848285016124b1565b91505092915050565b6000806000806080858703121561250d5761250c611fd9565b5b600061251b878288016124b1565b945050602085013567ffffffffffffffff81111561253c5761253b611fde565b5b61254887828801612410565b935050604061255987828801612004565b925050606061256a87828801612004565b91505092959194509250565b600081519050919050565b600082825260208201905092915050565b6000819050602082019050919050565b6125ab81611fe3565b82525050565b60006125bd83836125a2565b60208301905092915050565b6000602082019050919050565b60006125e182612576565b6125eb8185612581565b93506125f683612592565b8060005b8381101561262757815161260e88826125b1565b9750612619836125c9565b9250506001810190506125fa565b5085935050505092915050565b6000602082019050818103600083015261264e81846125d6565b905092915050565b7f4e6f74206f776e65720000000000000000000000000000000000000000000000600082015250565b600061268c600983612092565b915061269782612656565b602082019050919050565b600060208201905081810360008301526126bb8161267f565b9050919050565b7f4e487b7100000000000000000000000000000000000000000000000000000000600052602260045260246000fd5b6000600282049050600182168061270957607f821691505b6020821081141561271d5761271c6126c2565b5b50919050565b7f4e6f206163746976652064697370757465000000000000000000000000000000600082015250565b6000612759601183612092565b915061276482612723565b602082019050919050565b600060208201905081810360008301526127888161274c565b9050919050565b7f4e6f207061796d656e74206f6e207265636f726420746f20726566756e640000600082015250565b60006127c5601e83612092565b91506127d08261278f565b602082019050919050565b600060208201905081810360008301526127f4816127b8565b9050919050565b6000602082019050612810600083018461213b565b92915050565b600081905092915050565b50565b6000612831600083612816565b915061283c82612821565b600082019050919050565b600061285282612824565b9150819050919050565b7f526566756e64207472616e73666572206661696c656400000000000000000000600082015250565b6000612892601683612092565b915061289d8261285c565b602082019050919050565b600060208201905081810360008301526128c181612885565b9050919050565b7f44697370757465207265736f6c76656420696e2072656e74657227732066617660008201527f6f75720000000000000000000000000000000000000000000000000000000000602082015250565b6000612924602383612092565b915061292f826128c8565b604082019050919050565b600060408201905061294f6000830184612120565b818103602083015261296081612917565b905092915050565b7f4e6f7468696e6720746f20776974686472617700000000000000000000000000600082015250565b600061299e601383612092565b91506129a982612968565b602082019050919050565b600060208201905081810360008301526129cd81612991565b9050919050565b7f5769746864726177206661696c65640000000000000000000000000000000000600082015250565b6000612a0a600f83612092565b9150612a15826129d4565b602082019050919050565b60006020820190508181036000830152612a39816129fd565b9050919050565b7f4e6f7420617574686f72697a65643a206261636b656e64206f6e6c7900000000600082015250565b6000612a76601c83612092565b9150612a8182612a40565b602082019050919050565b60006020820190508181036000830152612aa581612a69565b9050919050565b7f496e76616c6964207265736572766174696f6e20494400000000000000000000600082015250565b6000612ae2601683612092565b9150612aed82612aac565b602082019050919050565b60006020820190508181036000830152612b1181612ad5565b9050919050565b7f4e487b7100000000000000000000000000000000000000000000000000000000600052603260045260246000fd5b7f5265736572766174696f6e206e6f7420636f6e6669726d656400000000000000600082015250565b6000612b7d601983612092565b9150612b8882612b47565b602082019050919050565b60006020820190508181036000830152612bac81612b70565b9050919050565b7f4469737075746520616c72656164792072616973656400000000000000000000600082015250565b6000612be9601683612092565b9150612bf482612bb3565b602082019050919050565b60006020820190508181036000830152612c1881612bdc565b9050919050565b60006020820190508181036000830152612c3981846120e7565b905092915050565b7f4e487b7100000000000000000000000000000000000000000000000000000000600052601160045260246000fd5b6000612c7b82611fe3565b9150612c8683611fe3565b925082821015612c9957612c98612c41565b5b828203905092915050565b7f4e487b7100000000000000000000000000000000000000000000000000000000600052601260045260246000fd5b6000612cde82611fe3565b9150612ce983611fe3565b925082612cf957612cf8612ca4565b5b828204905092915050565b6000604082019050612d196000830185612120565b8181036020830152612d2b81846120e7565b90509392505050565b6000612d3f82611fe3565b9150612d4a83611fe3565b9250827fffffffffffffffffffffffffffffffffffffffffffffffffffffffffffffffff03821115612d7f57612d7e612c41565b5b828201905092915050565b6000612d9582611fe3565b91507fffffffffffffffffffffffffffffffffffffffffffffffffffffffffffffffff821415612dc857612dc7612c41565b5b600182019050919050565b7f496e73756666696369656e74207061796d656e74000000000000000000000000600082015250565b6000612e09601483612092565b9150612e1482612dd3565b602082019050919050565b60006020820190508181036000830152612e3881612dfc565b9050919050565b60006060820190508181036000830152612e5981866120e7565b9050612e686020830185612120565b612e756040830184612120565b94935050505056fe5061727469616c20726566756e643a2063616e63656c6c65642077697468696e20343868206f66207069636b757046756c6c20726566756e643a2063616e63656c6c6564203e343868206265666f7265207069636b7570a264697066735822122039b7141743654c0a8db5a7fba6ddec59b372279e3e9316c9883c190c38abbf2d64736f6c63430008090033",
  "linkReferences": {},
  "deployedLinkReferences": {}
}